{"abi":[{"type":"constructor","inputs":[{"name":"usdtAddress","type":"address","internalType":"address"},{"name":"usdcAddress","type":"address","internalType":"address"}],"stateMutability":"nonpayable"},{"type":"receive","stateMutability":"payable"},{"type":"function","name":"ETH_TOKEN","inputs":[],"outputs":[{"name":"","type":"address","internalType":"address"}],"stateMutability":"view"},{"type":"function","name":"MAX_BATCH_SIZE","inputs":[],"outputs":[{"name":"","type":"uint256","internalType":"uint256"}],"stateMutability":"view"},{"type":"function","name":"MAX_REFUND_FEE_BPS","inputs":[],"outputs":[{"name":"","type":"uint256","internalType":"uint256"}],"stateMutability":"view"},{"type":"function","name":"REFUND_WINDOW","inputs":[],"outputs":[{"name":"","type":"uint256","internalType":"uint256"}],"stateMutability":"view"},{"type":"function","name":"USDC","inputs":[],"outputs":[{"name":"","type":"address","internalType":"contract IERC20"}],"stateMutability":"view"},{"type":"function","name":"USDT","inputs":[],"outputs":[{"name":"","type":"address","internalType":"contract IERC20"}],"stateMutability":"view"},{"type":"function","name":"acceptOwnership","inputs":[],"outputs":[],"stateMutability":"nonpayable"},{"type":"function","name":"batchReleaseReserveOnExpiry","inputs":[{"name":"soulKeyContracts","type":"address[]","internalType":"address[]"},{"name":"tokenIds","type":"uint256[]","internalType":"uint256[]"}],"outputs":[],"stateMutability":"nonpayable"},{"type":"function","name":"clearManagedToken","inputs":[{"name":"token","type":"address","internalType":"address"}],"outputs":[],"stateMutability":"nonpayable"},{"type":"function","name":"collectPayment","inputs":[{"name":"tokenId","type":"uint256","internalType":"uint256"},{"name":"payer","type":"address","internalType":"address"},{"name":"payToken","type":"address","internalType":"address"},{"name":"amount","type":"uint256","internalType":"uint256"}],"outputs":[],"stateMutability":"payable"},{"type":"function","name":"deregisterGame","inputs":[{"name":"soulKeyContract","type":"address","internalType":"address"}],"outputs":[],"stateMutability":"nonpayable"},{"type":"function","name":"emergencyWithdrawToken","inputs":[{"name":"token","type":"address","internalType":"address"}],"outputs":[],"stateMutability":"nonpayable"},{"type":"function","name":"getPaymentRecord","inputs":[{"name":"soulKeyContract","type":"address","internalType":"address"},{"name":"tokenId","type":"uint256","internalType":"uint256"}],"outputs":[{"name":"","type":"tuple","internalType":"struct MasterKeyVault.PaymentRecord","components":[{"name":"paymentToken","type":"address","internalType":"address"},{"name":"paidAt","type":"uint48","internalType":"uint48"},{"name":"status","type":"uint8","internalType":"enum MasterKeyVault.ReserveStatus"},{"name":"amount","type":"uint256","internalType":"uint256"},{"name":"payer","type":"address","internalType":"address"}]}],"stateMutability":"view"},{"type":"function","name":"getUSDC","inputs":[],"outputs":[{"name":"","type":"address","internalType":"address"}],"stateMutability":"view"},{"type":"function","name":"getUSDT","inputs":[],"outputs":[{"name":"","type":"address","internalType":"address"}],"stateMutability":"view"},{"type":"function","name":"isRefundable","inputs":[{"name":"soulKeyContract","type":"address","internalType":"address"},{"name":"tokenId","type":"uint256","internalType":"uint256"}],"outputs":[{"name":"","type":"bool","internalType":"bool"}],"stateMutability":"view"},{"type":"function","name":"owner","inputs":[],"outputs":[{"name":"","type":"address","internalType":"address"}],"stateMutability":"view"},{"type":"function","name":"pause","inputs":[],"outputs":[],"stateMutability":"nonpayable"},{"type":"function","name":"paused","inputs":[],"outputs":[{"name":"","type":"bool","internalType":"bool"}],"stateMutability":"view"},{"type":"function","name":"paymentRecords","inputs":[{"name":"","type":"address","internalType":"address"},{"name":"","type":"uint256","internalType":"uint256"}],"outputs":[{"name":"paymentToken","type":"address","internalType":"address"},{"name":"paidAt","type":"uint48","internalType":"uint48"},{"name":"status","type":"uint8","internalType":"enum MasterKeyVault.ReserveStatus"},{"name":"amount","type":"uint256","internalType":"uint256"},{"name":"payer","type":"address","internalType":"address"}],"stateMutability":"view"},{"type":"function","name":"pendingOwner","inputs":[],"outputs":[{"name":"","type":"address","internalType":"address"}],"stateMutability":"view"},{"type":"function","name":"processRefund","inputs":[{"name":"soulKeyContract","type":"address","internalType":"address"},{"name":"tokenId","type":"uint256","internalType":"uint256"},{"name":"reason","type":"string","internalType":"string"}],"outputs":[],"stateMutability":"nonpayable"},{"type":"function","name":"refundFeeBps","inputs":[],"outputs":[{"name":"","type":"uint256","internalType":"uint256"}],"stateMutability":"view"},{"type":"function","name":"registerGame","inputs":[{"name":"soulKeyContract","type":"address","internalType":"address"}],"outputs":[],"stateMutability":"nonpayable"},{"type":"function","name":"registeredGames","inputs":[{"name":"","type":"address","internalType":"address"}],"outputs":[{"name":"","type":"bool","internalType":"bool"}],"stateMutability":"view"},{"type":"function","name":"releaseReserveOnClaim","inputs":[{"name":"tokenId","type":"uint256","internalType":"uint256"},{"name":"claimant","type":"address","internalType":"address"}],"outputs":[],"stateMutability":"nonpayable"},{"type":"function","name":"releaseReserveOnExpiry","inputs":[{"name":"soulKeyContract","type":"address","internalType":"address"},{"name":"tokenId","type":"uint256","internalType":"uint256"}],"outputs":[],"stateMutability":"nonpayable"},{"type":"function","name":"renounceOwnership","inputs":[],"outputs":[],"stateMutability":"nonpayable"},{"type":"function","name":"reservedERC20","inputs":[{"name":"","type":"address","internalType":"address"}],"outputs":[{"name":"","type":"uint256","internalType":"uint256"}],"stateMutability":"view"},{"type":"function","name":"reservedETH","inputs":[],"outputs":[{"name":"","type":"uint256","internalType":"uint256"}],"stateMutability":"view"},{"type":"function","name":"setPaymentTokenUSDC","inputs":[{"name":"usdcAddress","type":"address","internalType":"address"}],"outputs":[],"stateMutability":"nonpayable"},{"type":"function","name":"setPaymentTokenUSDT","inputs":[{"name":"usdtAddress","type":"address","internalType":"address"}],"outputs":[],"stateMutability":"nonpayable"},{"type":"function","name":"setRefundFee","inputs":[{"name":"newFeeBps","type":"uint256","internalType":"uint256"}],"outputs":[],"stateMutability":"nonpayable"},{"type":"function","name":"transferOwnership","inputs":[{"name":"newOwner","type":"address","internalType":"address"}],"outputs":[],"stateMutability":"nonpayable"},{"type":"function","name":"unpause","inputs":[],"outputs":[],"stateMutability":"nonpayable"},{"type":"function","name":"withdrawAll","inputs":[],"outputs":[],"stateMutability":"nonpayable"},{"type":"function","name":"withdrawETH","inputs":[],"outputs":[],"stateMutability":"nonpayable"},{"type":"function","name":"withdrawToken","inputs":[{"name":"token","type":"address","internalType":"address"}],"outputs":[],"stateMutability":"nonpayable"},{"type":"function","name":"withdrawableERC20","inputs":[{"name":"token","type":"address","internalType":"address"}],"outputs":[{"name":"","type":"uint256","internalType":"uint256"}],"stateMutability":"view"},{"type":"function","name":"withdrawableETH","inputs":[],"outputs":[{"name":"","type":"uint256","internalType":"uint256"}],"stateMutability":"view"},{"type":"event","name":"GameDeregistered","inputs":[{"name":"soulKeyContract","type":"address","indexed":true,"internalType":"address"}],"anonymous":false},{"type":"event","name":"GameRegistered","inputs":[{"name":"soulKeyContract","type":"address","indexed":true,"internalType":"address"}],"anonymous":false},{"type":"event","name":"ManagedTokenCleared","inputs":[{"name":"token","type":"address","indexed":false,"internalType":"address"}],"anonymous":false},{"type":"event","name":"OwnershipTransferStarted","inputs":[{"name":"previousOwner","type":"address","indexed":true,"internalType":"address"},{"name":"newOwner","type":"address","indexed":true,"internalType":"address"}],"anonymous":false},{"type":"event","name":"OwnershipTransferred","inputs":[{"name":"previousOwner","type":"address","indexed":true,"internalType":"address"},{"name":"newOwner","type":"address","indexed":true,"internalType":"address"}],"anonymous":false},{"type":"event","name":"Paused","inputs":[{"name":"account","type":"address","indexed":false,"internalType":"address"}],"anonymous":false},{"type":"event","name":"PaymentCollected","inputs":[{"name":"soulKeyContract","type":"address","indexed":true,"internalType":"address"},{"name":"tokenId","type":"uint256","indexed":true,"internalType":"uint256"},{"name":"payer","type":"address","indexed":true,"internalType":"address"},{"name":"paymentToken","type":"address","indexed":false,"internalType":"address"},{"name":"amount","type":"uint256","indexed":false,"internalType":"uint256"}],"anonymous":false},{"type":"event","name":"PaymentTokenUpdated","inputs":[{"name":"token","type":"address","indexed":true,"internalType":"address"},{"name":"newAddress","type":"address","indexed":true,"internalType":"address"}],"anonymous":false},{"type":"event","name":"RefundFeeUpdated","inputs":[{"name":"oldFeeBps","type":"uint256","indexed":false,"internalType":"uint256"},{"name":"newFeeBps","type":"uint256","indexed":false,"internalType":"uint256"}],"anonymous":false},{"type":"event","name":"RefundIssued","inputs":[{"name":"soulKeyContract","type":"address","indexed":true,"internalType":"address"},{"name":"tokenId","type":"uint256","indexed":true,"internalType":"uint256"},{"name":"recipient","type":"address","indexed":true,"internalType":"address"},{"name":"paymentToken","type":"address","indexed":false,"internalType":"address"},{"name":"refundedAmount","type":"uint256","indexed":false,"internalType":"uint256"},{"name":"feeRetained","type":"uint256","indexed":false,"internalType":"uint256"},{"name":"reason","type":"string","indexed":false,"internalType":"string"}],"anonymous":false},{"type":"event","name":"ReserveReleased","inputs":[{"name":"soulKeyContract","type":"address","indexed":true,"internalType":"address"},{"name":"tokenId","type":"uint256","indexed":true,"internalType":"uint256"},{"name":"paymentToken","type":"address","indexed":false,"internalType":"address"},{"name":"amount","type":"uint256","indexed":false,"internalType":"uint256"},{"name":"releaseReason","type":"uint8","indexed":false,"internalType":"enum MasterKeyVault.ReserveStatus"}],"anonymous":false},{"type":"event","name":"Unpaused","inputs":[{"name":"account","type":"address","indexed":false,"internalType":"address"}],"anonymous":false},{"type":"error","name":"AlreadyProcessed","inputs":[]},{"type":"error","name":"ArrayLengthMismatch","inputs":[]},{"type":"error","name":"BatchTooLarge","inputs":[]},{"type":"error","name":"CannotWithdrawManagedToken","inputs":[]},{"type":"error","name":"ClaimantMismatch","inputs":[]},{"type":"error","name":"EnforcedPause","inputs":[]},{"type":"error","name":"ExpectedPause","inputs":[]},{"type":"error","name":"FeeTooHigh","inputs":[]},{"type":"error","name":"InsufficientVaultBalance","inputs":[]},{"type":"error","name":"NoPaymentRecord","inputs":[]},{"type":"error","name":"NotRegisteredGame","inputs":[]},{"type":"error","name":"NotTokenOwner","inputs":[]},{"type":"error","name":"OwnableInvalidOwner","inputs":[{"name":"owner","type":"address","internalType":"address"}]},{"type":"error","name":"OwnableUnauthorizedAccount","inputs":[{"name":"account","type":"address","internalType":"address"}]},{"type":"error","name":"ReentrancyGuardReentrantCall","inputs":[]},{"type":"error","name":"RefundTransferFailed","inputs":[]},{"type":"error","name":"RefundWindowActive","inputs":[]},{"type":"error","name":"RefundWindowExpired","inputs":[]},{"type":"error","name":"ReserveNotLocked","inputs":[]},{"type":"error","name":"ReserveNotZero","inputs":[]},{"type":"error","name":"SafeERC20FailedOperation","inputs":[{"name":"token","type":"address","internalType":"address"}]},{"type":"error","name":"ZeroAddress","inputs":[]}],"bytecode":{"object":"0x60806040526101f4600455348015610015575f5ffd5b50604051614a4b380380614a4b83398181016040528101906100379190610430565b335f73ffffffffffffffffffffffffffffffffffffffff168173ffffffffffffffffffffffffffffffffffffffff16036100a8575f6040517f1e4fbdf700000000000000000000000000000000000000000000000000000000815260040161009f919061047d565b60405180910390fd5b6100b7816102a960201b60201c565b5060016100d66100cb6102df60201b60201c565b61030860201b60201c565b5f01819055505f73ffffffffffffffffffffffffffffffffffffffff168273ffffffffffffffffffffffffffffffffffffffff16148061014157505f73ffffffffffffffffffffffffffffffffffffffff168173ffffffffffffffffffffffffffffffffffffffff16145b15610178576040517fd92e233d00000000000000000000000000000000000000000000000000000000815260040160405180910390fd5b8160025f6101000a81548173ffffffffffffffffffffffffffffffffffffffff021916908373ffffffffffffffffffffffffffffffffffffffff1602179055508060035f6101000a81548173ffffffffffffffffffffffffffffffffffffffff021916908373ffffffffffffffffffffffffffffffffffffffff160217905550600160055f8473ffffffffffffffffffffffffffffffffffffffff1673ffffffffffffffffffffffffffffffffffffffff1681526020019081526020015f205f6101000a81548160ff021916908315150217905550600160055f8373ffffffffffffffffffffffffffffffffffffffff1673ffffffffffffffffffffffffffffffffffffffff1681526020019081526020015f205f6101000a81548160ff0219169083151502179055505050610496565b60015f6101000a81549073ffffffffffffffffffffffffffffffffffffffff02191690556102dc8161031160201b60201c565b50565b5f7f9b779b17422d0df92223018b32b4d1fa46e071723d6817e2486d003becc55f005f1b905090565b5f819050919050565b5f5f5f9054906101000a900473ffffffffffffffffffffffffffffffffffffffff169050815f5f6101000a81548173ffffffffffffffffffffffffffffffffffffffff021916908373ffffffffffffffffffffffffffffffffffffffff1602179055508173ffffffffffffffffffffffffffffffffffffffff168173ffffffffffffffffffffffffffffffffffffffff167f8be0079c531659141344cd1fd0a4f28419497f9722a3daafe3b4186f6b6457e060405160405180910390a35050565b5f5ffd5b5f73ffffffffffffffffffffffffffffffffffffffff82169050919050565b5f6103ff826103d6565b9050919050565b61040f816103f5565b8114610419575f5ffd5b50565b5f8151905061042a81610406565b92915050565b5f5f60408385031215610446576104456103d2565b5b5f6104538582860161041c565b92505060206104648582860161041c565b9150509250929050565b610477816103f5565b82525050565b5f6020820190506104905f83018461046e565b92915050565b6145a8806104a35f395ff3fe60806040526004361061023e575f3560e01c806375c5c3901161012d578063ac027b21116100aa578063caddab361161006e578063caddab36146107ef578063cfdbf25414610817578063e086e5ec14610841578063e30c397814610857578063f2fde38b1461088157610245565b8063ac027b2114610711578063b43c9e0914610739578063b8029a3c14610761578063c5493f751461079d578063c54e44eb146107c557610245565b8063853828b6116100f1578063853828b614610657578063894760691461066d57806389a30271146106955780638da5cb5b146106bf5780639b36057c146106e957610245565b806375c5c3901461059d57806377b9fda8146105c557806379ba5097146105ef57806381293d5e146106055780638456cb591461064157610245565b806336fd711e116101bb57806358bc83371161017f57806358bc8337146104cd5780635c975abb146104f75780636913e7cc146105215780636a8354a41461054b578063715018a61461058757610245565b806336fd711e14610413578063398575e21461043b5780633c84c5ad146104635780633f4ba83a1461048d578063581592f1146104a357610245565b80631af03203116102025780631af032031461032d5780631bf01e9b1461035557806324f2df5f1461037f5780632f30aa471461039b578063309834a7146103d757610245565b8063017f755b146102495780630881a9cc1461028957806309a43cb4146102b1578063114a9a8e146102db5780631153b5f31461030357610245565b3661024557005b5f5ffd5b348015610254575f5ffd5b5061026f600480360381019061026a9190613a5e565b6108a9565b604051610280959493929190613b4d565b60405180910390f35b348015610294575f5ffd5b506102af60048036038101906102aa9190613b9e565b610941565b005b3480156102bc575f5ffd5b506102c5610b5d565b6040516102d29190613bc9565b60405180910390f35b3480156102e6575f5ffd5b5061030160048036038101906102fc9190613c43565b610b63565b005b34801561030e575f5ffd5b50610317611256565b6040516103249190613bc9565b60405180910390f35b348015610338575f5ffd5b50610353600480360381019061034e9190613b9e565b61125d565b005b348015610360575f5ffd5b5061036961144e565b6040516103769190613cb4565b60405180910390f35b61039960048036038101906103949190613ccd565b611476565b005b3480156103a6575f5ffd5b506103c160048036038101906103bc9190613a5e565b611962565b6040516103ce9190613dd3565b60405180910390f35b3480156103e2575f5ffd5b506103fd60048036038101906103f89190613b9e565b611ae1565b60405161040a9190613bc9565b60405180910390f35b34801561041e575f5ffd5b5061043960048036038101906104349190613dec565b611af6565b005b348015610446575f5ffd5b50610461600480360381019061045c9190613a5e565b611b7f565b005b34801561046e575f5ffd5b50610477611e03565b6040516104849190613bc9565b60405180910390f35b348015610498575f5ffd5b506104a1611e09565b005b3480156104ae575f5ffd5b506104b7611e1b565b6040516104c49190613cb4565b60405180910390f35b3480156104d8575f5ffd5b506104e1611e43565b6040516104ee9190613cb4565b60405180910390f35b348015610502575f5ffd5b5061050b611e47565b6040516105189190613e31565b60405180910390f35b34801561052c575f5ffd5b50610535611e5d565b6040516105429190613bc9565b60405180910390f35b348015610556575f5ffd5b50610571600480360381019061056c9190613b9e565b611e71565b60405161057e9190613e31565b60405180910390f35b348015610592575f5ffd5b5061059b611e8e565b005b3480156105a8575f5ffd5b506105c360048036038101906105be9190613ef4565b611ea1565b005b3480156105d0575f5ffd5b506105d96121b7565b6040516105e69190613bc9565b60405180910390f35b3480156105fa575f5ffd5b506106036121bd565b005b348015610610575f5ffd5b5061062b60048036038101906106269190613b9e565b61224b565b6040516106389190613bc9565b60405180910390f35b34801561064c575f5ffd5b50610655612313565b005b348015610662575f5ffd5b5061066b612325565b005b348015610678575f5ffd5b50610693600480360381019061068e9190613b9e565b6126ce565b005b3480156106a0575f5ffd5b506106a9612886565b6040516106b69190613fcd565b60405180910390f35b3480156106ca575f5ffd5b506106d36128ab565b6040516106e09190613cb4565b60405180910390f35b3480156106f4575f5ffd5b5061070f600480360381019061070a9190613b9e565b6128d2565b005b34801561071c575f5ffd5b5061073760048036038101906107329190613fe6565b6129da565b005b348015610744575f5ffd5b5061075f600480360381019061075a9190613b9e565b612d65565b005b34801561076c575f5ffd5b5061078760048036038101906107829190613a5e565b612e07565b6040516107949190613e31565b60405180910390f35b3480156107a8575f5ffd5b506107c360048036038101906107be9190613b9e565b612f29565b005b3480156107d0575f5ffd5b506107d9613145565b6040516107e69190613fcd565b60405180910390f35b3480156107fa575f5ffd5b5061081560048036038101906108109190613b9e565b61316a565b005b348015610822575f5ffd5b5061082b613276565b6040516108389190613bc9565b60405180910390f35b34801561084c575f5ffd5b5061085561327b565b005b348015610862575f5ffd5b5061086b613399565b6040516108789190613cb4565b60405180910390f35b34801561088c575f5ffd5b506108a760048036038101906108a29190613b9e565b6133c1565b005b6007602052815f5260405f20602052805f5260405f205f9150915050805f015f9054906101000a900473ffffffffffffffffffffffffffffffffffffffff1690805f0160149054906101000a900465ffffffffffff1690805f01601a9054906101000a900460ff1690806001015490806002015f9054906101000a900473ffffffffffffffffffffffffffffffffffffffff16905085565b61094961346d565b5f73ffffffffffffffffffffffffffffffffffffffff168173ffffffffffffffffffffffffffffffffffffffff16036109ae576040517fd92e233d00000000000000000000000000000000000000000000000000000000815260040160405180910390fd5b5f60095f60025f9054906101000a900473ffffffffffffffffffffffffffffffffffffffff1673ffffffffffffffffffffffffffffffffffffffff1673ffffffffffffffffffffffffffffffffffffffff1681526020019081526020015f205414610a45576040517f885c0e1b00000000000000000000000000000000000000000000000000000000815260040160405180910390fd5b600160055f8373ffffffffffffffffffffffffffffffffffffffff1673ffffffffffffffffffffffffffffffffffffffff1681526020019081526020015f205f6101000a81548160ff0219169083151502179055505f60025f9054906101000a900473ffffffffffffffffffffffffffffffffffffffff1690508160025f6101000a81548173ffffffffffffffffffffffffffffffffffffffff021916908373ffffffffffffffffffffffffffffffffffffffff1602179055508173ffffffffffffffffffffffffffffffffffffffff168173ffffffffffffffffffffffffffffffffffffffff167f5efdfedf5aef119c431263f0656093045dffdf44b3d8f1b0f158dc295c3a0f8e60405160405180910390a35050565b60045481565b610b6b6134f4565b60065f8573ffffffffffffffffffffffffffffffffffffffff1673ffffffffffffffffffffffffffffffffffffffff1681526020019081526020015f205f9054906101000a900460ff16610beb576040517f1e01075700000000000000000000000000000000000000000000000000000000815260040160405180910390fd5b5f60075f8673ffffffffffffffffffffffffffffffffffffffff1673ffffffffffffffffffffffffffffffffffffffff1681526020019081526020015f205f8581526020019081526020015f2090505f73ffffffffffffffffffffffffffffffffffffffff16816002015f9054906101000a900473ffffffffffffffffffffffffffffffffffffffff1673ffffffffffffffffffffffffffffffffffffffff1603610cc2576040517f889a57dc00000000000000000000000000000000000000000000000000000000815260040160405180910390fd5b600380811115610cd557610cd4613acb565b5b815f01601a9054906101000a900460ff166003811115610cf857610cf7613acb565b5b03610d2f576040517f57eee76600000000000000000000000000000000000000000000000000000000815260040160405180910390fd5b5f6003811115610d4257610d41613acb565b5b815f01601a9054906101000a900460ff166003811115610d6557610d64613acb565b5b14610d9c576040517fbe51f65900000000000000000000000000000000000000000000000000000000815260040160405180910390fd5b62127500815f0160149054906101000a900465ffffffffffff1665ffffffffffff16610dc89190614051565b421115610e01576040517f2f71ad3600000000000000000000000000000000000000000000000000000000815260040160405180910390fd5b5f8573ffffffffffffffffffffffffffffffffffffffff16636352211e866040518263ffffffff1660e01b8152600401610e3b9190613bc9565b602060405180830381865afa158015610e56573d5f5f3e3d5ffd5b505050506040513d601f19601f82011682018060405250810190610e7a9190614098565b90508073ffffffffffffffffffffffffffffffffffffffff163373ffffffffffffffffffffffffffffffffffffffff1614610ee1576040517f59dc379f00000000000000000000000000000000000000000000000000000000815260040160405180910390fd5b5f6127106004548460010154610ef791906140c3565b610f019190614131565b90505f818460010154610f149190614161565b90505f845f015f9054906101000a900473ffffffffffffffffffffffffffffffffffffffff1690505f856001015490506003865f01601a6101000a81548160ff02191690836003811115610f6b57610f6a613acb565b5b0217905550610f7a8282613516565b8973ffffffffffffffffffffffffffffffffffffffff16639d2f434b8a6040518263ffffffff1660e01b8152600401610fb39190613bc9565b5f604051808303815f87803b158015610fca575f5ffd5b505af1158015610fdc573d5f5f3e3d5ffd5b505050505f73ffffffffffffffffffffffffffffffffffffffff168273ffffffffffffffffffffffffffffffffffffffff16036110f2578247101561104d576040517f14ecd6c700000000000000000000000000000000000000000000000000000000815260040160405180910390fd5b5f8573ffffffffffffffffffffffffffffffffffffffff1684604051611072906141c1565b5f6040518083038185875af1925050503d805f81146110ac576040519150601f19603f3d011682016040523d82523d5f602084013e6110b1565b606091505b50509050806110ec576040517fcbe4e8c300000000000000000000000000000000000000000000000000000000815260040160405180910390fd5b506111d4565b5f829050838173ffffffffffffffffffffffffffffffffffffffff166370a08231306040518263ffffffff1660e01b81526004016111309190613cb4565b602060405180830381865afa15801561114b573d5f5f3e3d5ffd5b505050506040513d601f19601f8201168201806040525081019061116f91906141e9565b10156111a7576040517f14ecd6c700000000000000000000000000000000000000000000000000000000815260040160405180910390fd5b6111d286858373ffffffffffffffffffffffffffffffffffffffff166135be9092919063ffffffff16565b505b8473ffffffffffffffffffffffffffffffffffffffff16898b73ffffffffffffffffffffffffffffffffffffffff167f8a5c392265ffd7a1993720858a63d993b779e77b68133b643464ded2c2eb01c08587898e8e60405161123a95949392919061426e565b60405180910390a4505050505050611250613611565b50505050565b6212750081565b61126561346d565b61126d6134f4565b5f73ffffffffffffffffffffffffffffffffffffffff168173ffffffffffffffffffffffffffffffffffffffff16036112d2576040517fd92e233d00000000000000000000000000000000000000000000000000000000815260040160405180910390fd5b60055f8273ffffffffffffffffffffffffffffffffffffffff1673ffffffffffffffffffffffffffffffffffffffff1681526020019081526020015f205f9054906101000a900460ff1615611353576040517fc148157e00000000000000000000000000000000000000000000000000000000815260040160405180910390fd5b5f8173ffffffffffffffffffffffffffffffffffffffff166370a08231306040518263ffffffff1660e01b815260040161138d9190613cb4565b602060405180830381865afa1580156113a8573d5f5f3e3d5ffd5b505050506040513d601f19601f820116820180604052508101906113cc91906141e9565b90505f8111611410576040517f08c379a000000000000000000000000000000000000000000000000000000000815260040161140790614304565b60405180910390fd5b61144261141b6128ab565b828473ffffffffffffffffffffffffffffffffffffffff166135be9092919063ffffffff16565b5061144b613611565b50565b5f60035f9054906101000a900473ffffffffffffffffffffffffffffffffffffffff16905090565b60065f3373ffffffffffffffffffffffffffffffffffffffff1673ffffffffffffffffffffffffffffffffffffffff1681526020019081526020015f205f9054906101000a900460ff166114f6576040517f1e01075700000000000000000000000000000000000000000000000000000000815260040160405180910390fd5b6114fe61362b565b5f73ffffffffffffffffffffffffffffffffffffffff168373ffffffffffffffffffffffffffffffffffffffff1603611563576040517fd92e233d00000000000000000000000000000000000000000000000000000000815260040160405180910390fd5b5f73ffffffffffffffffffffffffffffffffffffffff168273ffffffffffffffffffffffffffffffffffffffff16036115f5578034146115d8576040517f08c379a00000000000000000000000000000000000000000000000000000000081526004016115cf9061436c565b60405180910390fd5b8060085f8282546115e99190614051565b9250508190555061174b565b8060095f8473ffffffffffffffffffffffffffffffffffffffff1673ffffffffffffffffffffffffffffffffffffffff1681526020019081526020015f205461163e9190614051565b8273ffffffffffffffffffffffffffffffffffffffff166370a08231306040518263ffffffff1660e01b81526004016116779190613cb4565b602060405180830381865afa158015611692573d5f5f3e3d5ffd5b505050506040513d601f19601f820116820180604052508101906116b691906141e9565b10156116f7576040517f08c379a00000000000000000000000000000000000000000000000000000000081526004016116ee906143d4565b60405180910390fd5b8060095f8473ffffffffffffffffffffffffffffffffffffffff1673ffffffffffffffffffffffffffffffffffffffff1681526020019081526020015f205f8282546117439190614051565b925050819055505b6040518060a001604052808373ffffffffffffffffffffffffffffffffffffffff1681526020014265ffffffffffff1681526020015f600381111561179357611792613acb565b5b81526020018281526020018473ffffffffffffffffffffffffffffffffffffffff1681525060075f3373ffffffffffffffffffffffffffffffffffffffff1673ffffffffffffffffffffffffffffffffffffffff1681526020019081526020015f205f8681526020019081526020015f205f820151815f015f6101000a81548173ffffffffffffffffffffffffffffffffffffffff021916908373ffffffffffffffffffffffffffffffffffffffff1602179055506020820151815f0160146101000a81548165ffffffffffff021916908365ffffffffffff1602179055506040820151815f01601a6101000a81548160ff0219169083600381111561189c5761189b613acb565b5b0217905550606082015181600101556080820151816002015f6101000a81548173ffffffffffffffffffffffffffffffffffffffff021916908373ffffffffffffffffffffffffffffffffffffffff1602179055509050508273ffffffffffffffffffffffffffffffffffffffff16843373ffffffffffffffffffffffffffffffffffffffff167feae8015622d62fbf104ce843eb4c7fa0e6f87ee72d20a3c8945054f378de692485856040516119549291906143f2565b60405180910390a450505050565b61196a613959565b60075f8473ffffffffffffffffffffffffffffffffffffffff1673ffffffffffffffffffffffffffffffffffffffff1681526020019081526020015f205f8381526020019081526020015f206040518060a00160405290815f82015f9054906101000a900473ffffffffffffffffffffffffffffffffffffffff1673ffffffffffffffffffffffffffffffffffffffff1673ffffffffffffffffffffffffffffffffffffffff1681526020015f820160149054906101000a900465ffffffffffff1665ffffffffffff1665ffffffffffff1681526020015f8201601a9054906101000a900460ff166003811115611a6457611a63613acb565b5b6003811115611a7657611a75613acb565b5b815260200160018201548152602001600282015f9054906101000a900473ffffffffffffffffffffffffffffffffffffffff1673ffffffffffffffffffffffffffffffffffffffff1673ffffffffffffffffffffffffffffffffffffffff1681525050905092915050565b6009602052805f5260405f205f915090505481565b611afe61346d565b6103e8811115611b3a576040517fcd4e616700000000000000000000000000000000000000000000000000000000815260040160405180910390fd5b7f77455085f7c9cb060e764dd3353345f42d928b372107e118908a9820f98ac2e960045482604051611b6d929190614419565b60405180910390a18060048190555050565b5f60075f8473ffffffffffffffffffffffffffffffffffffffff1673ffffffffffffffffffffffffffffffffffffffff1681526020019081526020015f205f8381526020019081526020015f2090505f73ffffffffffffffffffffffffffffffffffffffff16816002015f9054906101000a900473ffffffffffffffffffffffffffffffffffffffff1673ffffffffffffffffffffffffffffffffffffffff1603611c56576040517f889a57dc00000000000000000000000000000000000000000000000000000000815260040160405180910390fd5b5f6003811115611c6957611c68613acb565b5b815f01601a9054906101000a900460ff166003811115611c8c57611c8b613acb565b5b14611cc3576040517fbe51f65900000000000000000000000000000000000000000000000000000000815260040160405180910390fd5b62127500815f0160149054906101000a900465ffffffffffff1665ffffffffffff16611cef9190614051565b421015611d28576040517f1c61a95400000000000000000000000000000000000000000000000000000000815260040160405180910390fd5b6002815f01601a6101000a81548160ff02191690836003811115611d4f57611d4e613acb565b5b0217905550611d84815f015f9054906101000a900473ffffffffffffffffffffffffffffffffffffffff168260010154613516565b818373ffffffffffffffffffffffffffffffffffffffff167f4463047c1f932210c951431ab124897fb324dd8c93b9e8f1153569925312c0de835f015f9054906101000a900473ffffffffffffffffffffffffffffffffffffffff1684600101546002604051611df693929190614440565b60405180910390a3505050565b6103e881565b611e1161346d565b611e1961366c565b565b5f60025f9054906101000a900473ffffffffffffffffffffffffffffffffffffffff16905090565b5f81565b5f600160149054906101000a900460ff16905090565b5f60085447611e6c9190614161565b905090565b6006602052805f5260405f205f915054906101000a900460ff1681565b611e9661346d565b611e9f5f6136ce565b565b818190508484905014611ee0576040517fa24a13a600000000000000000000000000000000000000000000000000000000815260040160405180910390fd5b6064848490501115611f1e576040517f0b7d62e200000000000000000000000000000000000000000000000000000000815260040160405180910390fd5b5f5f90505b848490508110156121b0575f60075f878785818110611f4557611f44614475565b5b9050602002016020810190611f5a9190613b9e565b73ffffffffffffffffffffffffffffffffffffffff1673ffffffffffffffffffffffffffffffffffffffff1681526020019081526020015f205f858585818110611fa757611fa6614475565b5b9050602002013581526020019081526020015f2090505f73ffffffffffffffffffffffffffffffffffffffff16816002015f9054906101000a900473ffffffffffffffffffffffffffffffffffffffff1673ffffffffffffffffffffffffffffffffffffffff161415801561204f57505f600381111561202a57612029613acb565b5b815f01601a9054906101000a900460ff16600381111561204d5761204c613acb565b5b145b8015612086575062127500815f0160149054906101000a900465ffffffffffff1665ffffffffffff166120829190614051565b4210155b156121a2576002815f01601a6101000a81548160ff021916908360038111156120b2576120b1613acb565b5b02179055506120e7815f015f9054906101000a900473ffffffffffffffffffffffffffffffffffffffff168260010154613516565b8383838181106120fa576120f9614475565b5b9050602002013586868481811061211457612113614475565b5b90506020020160208101906121299190613b9e565b73ffffffffffffffffffffffffffffffffffffffff167f4463047c1f932210c951431ab124897fb324dd8c93b9e8f1153569925312c0de835f015f9054906101000a900473ffffffffffffffffffffffffffffffffffffffff168460010154600260405161219993929190614440565b60405180910390a35b508080600101915050611f23565b5050505050565b60085481565b5f6121c66136fe565b90508073ffffffffffffffffffffffffffffffffffffffff166121e7613399565b73ffffffffffffffffffffffffffffffffffffffff161461223f57806040517f118cdaa70000000000000000000000000000000000000000000000000000000081526004016122369190613cb4565b60405180910390fd5b612248816136ce565b50565b5f60095f8373ffffffffffffffffffffffffffffffffffffffff1673ffffffffffffffffffffffffffffffffffffffff1681526020019081526020015f20548273ffffffffffffffffffffffffffffffffffffffff166370a08231306040518263ffffffff1660e01b81526004016122c39190613cb4565b602060405180830381865afa1580156122de573d5f5f3e3d5ffd5b505050506040513d601f19601f8201168201806040525081019061230291906141e9565b61230c9190614161565b9050919050565b61231b61346d565b612323613705565b565b61232d61346d565b6123356134f4565b5f600854476123449190614161565b90505f8111156123ff575f6123576128ab565b73ffffffffffffffffffffffffffffffffffffffff168260405161237a906141c1565b5f6040518083038185875af1925050503d805f81146123b4576040519150601f19603f3d011682016040523d82523d5f602084013e6123b9565b606091505b50509050806123fd576040517f08c379a00000000000000000000000000000000000000000000000000000000081526004016123f4906144ec565b60405180910390fd5b505b5f60095f60025f9054906101000a900473ffffffffffffffffffffffffffffffffffffffff1673ffffffffffffffffffffffffffffffffffffffff1673ffffffffffffffffffffffffffffffffffffffff1681526020019081526020015f205460025f9054906101000a900473ffffffffffffffffffffffffffffffffffffffff1673ffffffffffffffffffffffffffffffffffffffff166370a08231306040518263ffffffff1660e01b81526004016124b99190613cb4565b602060405180830381865afa1580156124d4573d5f5f3e3d5ffd5b505050506040513d601f19601f820116820180604052508101906124f891906141e9565b6125029190614161565b90505f8111156125605761255f6125176128ab565b8260025f9054906101000a900473ffffffffffffffffffffffffffffffffffffffff1673ffffffffffffffffffffffffffffffffffffffff166135be9092919063ffffffff16565b5b5f60095f60035f9054906101000a900473ffffffffffffffffffffffffffffffffffffffff1673ffffffffffffffffffffffffffffffffffffffff1673ffffffffffffffffffffffffffffffffffffffff1681526020019081526020015f205460035f9054906101000a900473ffffffffffffffffffffffffffffffffffffffff1673ffffffffffffffffffffffffffffffffffffffff166370a08231306040518263ffffffff1660e01b815260040161261a9190613cb4565b602060405180830381865afa158015612635573d5f5f3e3d5ffd5b505050506040513d601f19601f8201168201806040525081019061265991906141e9565b6126639190614161565b90505f8111156126c1576126c06126786128ab565b8260035f9054906101000a900473ffffffffffffffffffffffffffffffffffffffff1673ffffffffffffffffffffffffffffffffffffffff166135be9092919063ffffffff16565b5b5050506126cc613611565b565b6126d661346d565b6126de6134f4565b5f73ffffffffffffffffffffffffffffffffffffffff168173ffffffffffffffffffffffffffffffffffffffff1603612743576040517fd92e233d00000000000000000000000000000000000000000000000000000000815260040160405180910390fd5b5f60095f8373ffffffffffffffffffffffffffffffffffffffff1673ffffffffffffffffffffffffffffffffffffffff1681526020019081526020015f20548273ffffffffffffffffffffffffffffffffffffffff166370a08231306040518263ffffffff1660e01b81526004016127bb9190613cb4565b602060405180830381865afa1580156127d6573d5f5f3e3d5ffd5b505050506040513d601f19601f820116820180604052508101906127fa91906141e9565b6128049190614161565b90505f8111612848576040517f08c379a000000000000000000000000000000000000000000000000000000000815260040161283f90614554565b60405180910390fd5b61287a6128536128ab565b828473ffffffffffffffffffffffffffffffffffffffff166135be9092919063ffffffff16565b50612883613611565b50565b60035f9054906101000a900473ffffffffffffffffffffffffffffffffffffffff1681565b5f5f5f9054906101000a900473ffffffffffffffffffffffffffffffffffffffff16905090565b6128da61346d565b5f73ffffffffffffffffffffffffffffffffffffffff168173ffffffffffffffffffffffffffffffffffffffff160361293f576040517fd92e233d00000000000000000000000000000000000000000000000000000000815260040160405180910390fd5b600160065f8373ffffffffffffffffffffffffffffffffffffffff1673ffffffffffffffffffffffffffffffffffffffff1681526020019081526020015f205f6101000a81548160ff0219169083151502179055508073ffffffffffffffffffffffffffffffffffffffff167f1242fa44f29ea25204260dcb4d577c3a31c201abab5392839c94d1274a8244e560405160405180910390a250565b60065f3373ffffffffffffffffffffffffffffffffffffffff1673ffffffffffffffffffffffffffffffffffffffff1681526020019081526020015f205f9054906101000a900460ff16612a5a576040517f1e01075700000000000000000000000000000000000000000000000000000000815260040160405180910390fd5b612a626134f4565b5f60075f3373ffffffffffffffffffffffffffffffffffffffff1673ffffffffffffffffffffffffffffffffffffffff1681526020019081526020015f205f8481526020019081526020015f2090505f73ffffffffffffffffffffffffffffffffffffffff16816002015f9054906101000a900473ffffffffffffffffffffffffffffffffffffffff1673ffffffffffffffffffffffffffffffffffffffff1603612b39576040517f889a57dc00000000000000000000000000000000000000000000000000000000815260040160405180910390fd5b5f6003811115612b4c57612b4b613acb565b5b815f01601a9054906101000a900460ff166003811115612b6f57612b6e613acb565b5b14612ba6576040517fbe51f65900000000000000000000000000000000000000000000000000000000815260040160405180910390fd5b6001815f01601a6101000a81548160ff02191690836003811115612bcd57612bcc613acb565b5b0217905550612c02815f015f9054906101000a900473ffffffffffffffffffffffffffffffffffffffff168260010154613516565b8173ffffffffffffffffffffffffffffffffffffffff163373ffffffffffffffffffffffffffffffffffffffff16636352211e856040518263ffffffff1660e01b8152600401612c529190613bc9565b602060405180830381865afa158015612c6d573d5f5f3e3d5ffd5b505050506040513d601f19601f82011682018060405250810190612c919190614098565b73ffffffffffffffffffffffffffffffffffffffff1614612cde576040517fcf808fe300000000000000000000000000000000000000000000000000000000815260040160405180910390fd5b823373ffffffffffffffffffffffffffffffffffffffff167f4463047c1f932210c951431ab124897fb324dd8c93b9e8f1153569925312c0de835f015f9054906101000a900473ffffffffffffffffffffffffffffffffffffffff1684600101546001604051612d5093929190614440565b60405180910390a350612d61613611565b5050565b612d6d61346d565b5f60065f8373ffffffffffffffffffffffffffffffffffffffff1673ffffffffffffffffffffffffffffffffffffffff1681526020019081526020015f205f6101000a81548160ff0219169083151502179055508073ffffffffffffffffffffffffffffffffffffffff167f49774c9b4e9474e6bbe367546c22b0c5afe710b11a32abe4b5e0d368e3971f6860405160405180910390a250565b5f5f60075f8573ffffffffffffffffffffffffffffffffffffffff1673ffffffffffffffffffffffffffffffffffffffff1681526020019081526020015f205f8481526020019081526020015f2090505f73ffffffffffffffffffffffffffffffffffffffff16816002015f9054906101000a900473ffffffffffffffffffffffffffffffffffffffff1673ffffffffffffffffffffffffffffffffffffffff1614158015612ee957505f6003811115612ec457612ec3613acb565b5b815f01601a9054906101000a900460ff166003811115612ee757612ee6613acb565b5b145b8015612f20575062127500815f0160149054906101000a900465ffffffffffff1665ffffffffffff16612f1c9190614051565b4211155b91505092915050565b612f3161346d565b5f73ffffffffffffffffffffffffffffffffffffffff168173ffffffffffffffffffffffffffffffffffffffff1603612f96576040517fd92e233d00000000000000000000000000000000000000000000000000000000815260040160405180910390fd5b5f60095f60035f9054906101000a900473ffffffffffffffffffffffffffffffffffffffff1673ffffffffffffffffffffffffffffffffffffffff1673ffffffffffffffffffffffffffffffffffffffff1681526020019081526020015f20541461302d576040517f885c0e1b00000000000000000000000000000000000000000000000000000000815260040160405180910390fd5b600160055f8373ffffffffffffffffffffffffffffffffffffffff1673ffffffffffffffffffffffffffffffffffffffff1681526020019081526020015f205f6101000a81548160ff0219169083151502179055505f60035f9054906101000a900473ffffffffffffffffffffffffffffffffffffffff1690508160035f6101000a81548173ffffffffffffffffffffffffffffffffffffffff021916908373ffffffffffffffffffffffffffffffffffffffff1602179055508173ffffffffffffffffffffffffffffffffffffffff168173ffffffffffffffffffffffffffffffffffffffff167f5efdfedf5aef119c431263f0656093045dffdf44b3d8f1b0f158dc295c3a0f8e60405160405180910390a35050565b60025f9054906101000a900473ffffffffffffffffffffffffffffffffffffffff1681565b61317261346d565b5f60095f8373ffffffffffffffffffffffffffffffffffffffff1673ffffffffffffffffffffffffffffffffffffffff1681526020019081526020015f2054146131e8576040517f885c0e1b00000000000000000000000000000000000000000000000000000000815260040160405180910390fd5b5f60055f8373ffffffffffffffffffffffffffffffffffffffff1673ffffffffffffffffffffffffffffffffffffffff1681526020019081526020015f205f6101000a81548160ff0219169083151502179055507f0706397b2d57f0cca063dccf0adc61783818657479bd52ed7f0c6a10b16c91ed8160405161326b9190613cb4565b60405180910390a150565b606481565b61328361346d565b61328b6134f4565b5f6008544761329a9190614161565b90505f81116132de576040517f08c379a00000000000000000000000000000000000000000000000000000000081526004016132d590614554565b60405180910390fd5b5f6132e76128ab565b73ffffffffffffffffffffffffffffffffffffffff168260405161330a906141c1565b5f6040518083038185875af1925050503d805f8114613344576040519150601f19603f3d011682016040523d82523d5f602084013e613349565b606091505b505090508061338d576040517f08c379a0000000000000000000000000000000000000000000000000000000008152600401613384906144ec565b60405180910390fd5b5050613397613611565b565b5f60015f9054906101000a900473ffffffffffffffffffffffffffffffffffffffff16905090565b6133c961346d565b8060015f6101000a81548173ffffffffffffffffffffffffffffffffffffffff021916908373ffffffffffffffffffffffffffffffffffffffff1602179055508073ffffffffffffffffffffffffffffffffffffffff166134286128ab565b73ffffffffffffffffffffffffffffffffffffffff167f38d16b8cac22d99fc7c124b9cd0de2d3fa1faef420bfe791d8c362d765e2270060405160405180910390a350565b6134756136fe565b73ffffffffffffffffffffffffffffffffffffffff166134936128ab565b73ffffffffffffffffffffffffffffffffffffffff16146134f2576134b66136fe565b6040517f118cdaa70000000000000000000000000000000000000000000000000000000081526004016134e99190613cb4565b60405180910390fd5b565b6134fc613767565b600261350e6135096137a8565b6137d1565b5f0181905550565b5f73ffffffffffffffffffffffffffffffffffffffff168273ffffffffffffffffffffffffffffffffffffffff1603613566578060085f82825461355a9190614161565b925050819055506135ba565b8060095f8473ffffffffffffffffffffffffffffffffffffffff1673ffffffffffffffffffffffffffffffffffffffff1681526020019081526020015f205f8282546135b29190614161565b925050819055505b5050565b6135cb83838360016137da565b61360c57826040517f5274afe70000000000000000000000000000000000000000000000000000000081526004016136039190613cb4565b60405180910390fd5b505050565b600161362361361e6137a8565b6137d1565b5f0181905550565b613633611e47565b1561366a576040517fd93c066500000000000000000000000000000000000000000000000000000000815260040160405180910390fd5b565b61367461383c565b5f600160146101000a81548160ff0219169083151502179055507f5db9ee0a495bf2e6ff9c91a7834c1ba4fdd244a5e8aa4e537bd38aeae4b073aa6136b76136fe565b6040516136c49190613cb4565b60405180910390a1565b60015f6101000a81549073ffffffffffffffffffffffffffffffffffffffff02191690556136fb8161387c565b50565b5f33905090565b61370d61362b565b60018060146101000a81548160ff0219169083151502179055507f62e78cea01bee320cd4e420270b5ea74000d11b0c9f74754ebdbfc544b05a2586137506136fe565b60405161375d9190613cb4565b60405180910390a1565b61376f61393d565b156137a6576040517f3ee5aeb500000000000000000000000000000000000000000000000000000000815260040160405180910390fd5b565b5f7f9b779b17422d0df92223018b32b4d1fa46e071723d6817e2486d003becc55f005f1b905090565b5f819050919050565b5f5f63a9059cbb60e01b9050604051815f525f1960601c86166004528460245260205f60445f5f8b5af1925060015f5114831661382e578383151615613822573d5f823e3d81fd5b5f873b113d1516831692505b806040525050949350505050565b613844611e47565b61387a576040517f8dfc202b00000000000000000000000000000000000000000000000000000000815260040160405180910390fd5b565b5f5f5f9054906101000a900473ffffffffffffffffffffffffffffffffffffffff169050815f5f6101000a81548173ffffffffffffffffffffffffffffffffffffffff021916908373ffffffffffffffffffffffffffffffffffffffff1602179055508173ffffffffffffffffffffffffffffffffffffffff168173ffffffffffffffffffffffffffffffffffffffff167f8be0079c531659141344cd1fd0a4f28419497f9722a3daafe3b4186f6b6457e060405160405180910390a35050565b5f600261395061394b6137a8565b6137d1565b5f015414905090565b6040518060a001604052805f73ffffffffffffffffffffffffffffffffffffffff1681526020015f65ffffffffffff1681526020015f60038111156139a1576139a0613acb565b5b81526020015f81526020015f73ffffffffffffffffffffffffffffffffffffffff1681525090565b5f5ffd5b5f5ffd5b5f73ffffffffffffffffffffffffffffffffffffffff82169050919050565b5f6139fa826139d1565b9050919050565b613a0a816139f0565b8114613a14575f5ffd5b50565b5f81359050613a2581613a01565b92915050565b5f819050919050565b613a3d81613a2b565b8114613a47575f5ffd5b50565b5f81359050613a5881613a34565b92915050565b5f5f60408385031215613a7457613a736139c9565b5b5f613a8185828601613a17565b9250506020613a9285828601613a4a565b9150509250929050565b613aa5816139f0565b82525050565b5f65ffffffffffff82169050919050565b613ac581613aab565b82525050565b7f4e487b71000000000000000000000000000000000000000000000000000000005f52602160045260245ffd5b60048110613b0957613b08613acb565b5b50565b5f819050613b1982613af8565b919050565b5f613b2882613b0c565b9050919050565b613b3881613b1e565b82525050565b613b4781613a2b565b82525050565b5f60a082019050613b605f830188613a9c565b613b6d6020830187613abc565b613b7a6040830186613b2f565b613b876060830185613b3e565b613b946080830184613a9c565b9695505050505050565b5f60208284031215613bb357613bb26139c9565b5b5f613bc084828501613a17565b91505092915050565b5f602082019050613bdc5f830184613b3e565b92915050565b5f5ffd5b5f5ffd5b5f5ffd5b5f5f83601f840112613c0357613c02613be2565b5b8235905067ffffffffffffffff811115613c2057613c1f613be6565b5b602083019150836001820283011115613c3c57613c3b613bea565b5b9250929050565b5f5f5f5f60608587031215613c5b57613c5a6139c9565b5b5f613c6887828801613a17565b9450506020613c7987828801613a4a565b935050604085013567ffffffffffffffff811115613c9a57613c996139cd565b5b613ca687828801613bee565b925092505092959194509250565b5f602082019050613cc75f830184613a9c565b92915050565b5f5f5f5f60808587031215613ce557613ce46139c9565b5b5f613cf287828801613a4a565b9450506020613d0387828801613a17565b9350506040613d1487828801613a17565b9250506060613d2587828801613a4a565b91505092959194509250565b613d3a816139f0565b82525050565b613d4981613aab565b82525050565b613d5881613b1e565b82525050565b613d6781613a2b565b82525050565b60a082015f820151613d815f850182613d31565b506020820151613d946020850182613d40565b506040820151613da76040850182613d4f565b506060820151613dba6060850182613d5e565b506080820151613dcd6080850182613d31565b50505050565b5f60a082019050613de65f830184613d6d565b92915050565b5f60208284031215613e0157613e006139c9565b5b5f613e0e84828501613a4a565b91505092915050565b5f8115159050919050565b613e2b81613e17565b82525050565b5f602082019050613e445f830184613e22565b92915050565b5f5f83601f840112613e5f57613e5e613be2565b5b8235905067ffffffffffffffff811115613e7c57613e7b613be6565b5b602083019150836020820283011115613e9857613e97613bea565b5b9250929050565b5f5f83601f840112613eb457613eb3613be2565b5b8235905067ffffffffffffffff811115613ed157613ed0613be6565b5b602083019150836020820283011115613eed57613eec613bea565b5b9250929050565b5f5f5f5f60408587031215613f0c57613f0b6139c9565b5b5f85013567ffffffffffffffff811115613f2957613f286139cd565b5b613f3587828801613e4a565b9450945050602085013567ffffffffffffffff811115613f5857613f576139cd565b5b613f6487828801613e9f565b925092505092959194509250565b5f819050919050565b5f613f95613f90613f8b846139d1565b613f72565b6139d1565b9050919050565b5f613fa682613f7b565b9050919050565b5f613fb782613f9c565b9050919050565b613fc781613fad565b82525050565b5f602082019050613fe05f830184613fbe565b92915050565b5f5f60408385031215613ffc57613ffb6139c9565b5b5f61400985828601613a4a565b925050602061401a85828601613a17565b9150509250929050565b7f4e487b71000000000000000000000000000000000000000000000000000000005f52601160045260245ffd5b5f61405b82613a2b565b915061406683613a2b565b925082820190508082111561407e5761407d614024565b5b92915050565b5f8151905061409281613a01565b92915050565b5f602082840312156140ad576140ac6139c9565b5b5f6140ba84828501614084565b91505092915050565b5f6140cd82613a2b565b91506140d883613a2b565b92508282026140e681613a2b565b915082820484148315176140fd576140fc614024565b5b5092915050565b7f4e487b71000000000000000000000000000000000000000000000000000000005f52601260045260245ffd5b5f61413b82613a2b565b915061414683613a2b565b92508261415657614155614104565b5b828204905092915050565b5f61416b82613a2b565b915061417683613a2b565b925082820390508181111561418e5761418d614024565b5b92915050565b5f81905092915050565b50565b5f6141ac5f83614194565b91506141b78261419e565b5f82019050919050565b5f6141cb826141a1565b9150819050919050565b5f815190506141e381613a34565b92915050565b5f602082840312156141fe576141fd6139c9565b5b5f61420b848285016141d5565b91505092915050565b5f82825260208201905092915050565b828183375f83830152505050565b5f601f19601f8301169050919050565b5f61424d8385614214565b935061425a838584614224565b61426383614232565b840190509392505050565b5f6080820190506142815f830188613a9c565b61428e6020830187613b3e565b61429b6040830186613b3e565b81810360608301526142ae818486614242565b90509695505050505050565b7f4e6f7468696e6720746f207265636f76657200000000000000000000000000005f82015250565b5f6142ee601283614214565b91506142f9826142ba565b602082019050919050565b5f6020820190508181035f83015261431b816142e2565b9050919050565b7f45544820616d6f756e74206d69736d61746368000000000000000000000000005f82015250565b5f614356601383614214565b915061436182614322565b602082019050919050565b5f6020820190508181035f8301526143838161434a565b9050919050565b7f546f6b656e73206e6f74207265636569766564000000000000000000000000005f82015250565b5f6143be601383614214565b91506143c98261438a565b602082019050919050565b5f6020820190508181035f8301526143eb816143b2565b9050919050565b5f6040820190506144055f830185613a9c565b6144126020830184613b3e565b9392505050565b5f60408201905061442c5f830185613b3e565b6144396020830184613b3e565b9392505050565b5f6060820190506144535f830186613a9c565b6144606020830185613b3e565b61446d6040830184613b2f565b949350505050565b7f4e487b71000000000000000000000000000000000000000000000000000000005f52603260045260245ffd5b7f455448207769746864726177616c206661696c656400000000000000000000005f82015250565b5f6144d6601583614214565b91506144e1826144a2565b602082019050919050565b5f6020820190508181035f830152614503816144ca565b9050919050565b7f4e6f7468696e6720746f207769746864726177000000000000000000000000005f82015250565b5f61453e601383614214565b91506145498261450a565b602082019050919050565b5f6020820190508181035f83015261456b81614532565b905091905056fea264697066735822122046e05ddcaf5f7f5f9f27b1f532130915f32166982701278e37021e7dd75fc31464736f6c634300081c0033","linkReferences":{}},"methodIdentifiers":{"ETH_TOKEN()":"58bc8337","MAX_BATCH_SIZE()":"cfdbf254","MAX_REFUND_FEE_BPS()":"3c84c5ad","REFUND_WINDOW()":"1153b5f3","USDC()":"89a30271","USDT()":"c54e44eb","acceptOwnership()":"79ba5097","batchReleaseReserveOnExpiry(address[],uint256[])":"75c5c390","clearManagedToken(address)":"caddab36","collectPayment(uint256,address,address,uint256)":"24f2df5f","deregisterGame(address)":"b43c9e09","emergencyWithdrawToken(address)":"1af03203","getPaymentRecord(address,uint256)":"2f30aa47","getUSDC()":"1bf01e9b","getUSDT()":"581592f1","isRefundable(address,uint256)":"b8029a3c","owner()":"8da5cb5b","pause()":"8456cb59","paused()":"5c975abb","paymentRecords(address,uint256)":"017f755b","pendingOwner()":"e30c3978","processRefund(address,uint256,string)":"114a9a8e","refundFeeBps()":"09a43cb4","registerGame(address)":"9b36057c","registeredGames(address)":"6a8354a4","releaseReserveOnClaim(uint256,address)":"ac027b21","releaseReserveOnExpiry(address,uint256)":"398575e2","renounceOwnership()":"715018a6","reservedERC20(address)":"309834a7","reservedETH()":"77b9fda8","setPaymentTokenUSDC(address)":"c5493f75","setPaymentTokenUSDT(address)":"0881a9cc","setRefundFee(uint256)":"36fd711e","transferOwnership(address)":"f2fde38b","unpause()":"3f4ba83a","withdrawAll()":"853828b6","withdrawETH()":"e086e5ec","withdrawToken(address)":"89476069","withdrawableERC20(address)":"81293d5e","withdrawableETH()":"6913e7cc"},"id":0}