{"abi":[{"type":"constructor","inputs":[{"name":"vaultAddress","type":"address","internalType":"address"},{"name":"baseTokenURI","type":"string","internalType":"string"},{"name":"gameName","type":"string","internalType":"string"},{"name":"gameSymbol","type":"string","internalType":"string"},{"name":"supply","type":"uint64","internalType":"uint64"}],"stateMutability":"nonpayable"},{"type":"function","name":"acceptOwnership","inputs":[],"outputs":[],"stateMutability":"nonpayable"},{"type":"function","name":"approve","inputs":[{"name":"to","type":"address","internalType":"address"},{"name":"tokenId","type":"uint256","internalType":"uint256"}],"outputs":[],"stateMutability":"nonpayable"},{"type":"function","name":"balanceOf","inputs":[{"name":"owner","type":"address","internalType":"address"}],"outputs":[{"name":"","type":"uint256","internalType":"uint256"}],"stateMutability":"view"},{"type":"function","name":"baseURI","inputs":[],"outputs":[{"name":"","type":"string","internalType":"string"}],"stateMutability":"view"},{"type":"function","name":"burn","inputs":[{"name":"tokenId","type":"uint256","internalType":"uint256"}],"outputs":[],"stateMutability":"nonpayable"},{"type":"function","name":"burnByVault","inputs":[{"name":"tokenId","type":"uint256","internalType":"uint256"}],"outputs":[],"stateMutability":"nonpayable"},{"type":"function","name":"claimCdKey","inputs":[{"name":"tokenId","type":"uint256","internalType":"uint256"},{"name":"cdKeyHash","type":"bytes32","internalType":"bytes32"},{"name":"ownerEncryptedKey","type":"bytes","internalType":"bytes"}],"outputs":[],"stateMutability":"nonpayable"},{"type":"function","name":"getApproved","inputs":[{"name":"tokenId","type":"uint256","internalType":"uint256"}],"outputs":[{"name":"","type":"address","internalType":"address"}],"stateMutability":"view"},{"type":"function","name":"getClaimTimestamp","inputs":[{"name":"tokenId","type":"uint256","internalType":"uint256"}],"outputs":[{"name":"","type":"uint256","internalType":"uint256"}],"stateMutability":"view"},{"type":"function","name":"getCommitmentHash","inputs":[{"name":"tokenId","type":"uint256","internalType":"uint256"}],"outputs":[{"name":"","type":"bytes32","internalType":"bytes32"}],"stateMutability":"view"},{"type":"function","name":"getEncryptedCDKey","inputs":[{"name":"tokenId","type":"uint256","internalType":"uint256"}],"outputs":[{"name":"","type":"bytes","internalType":"bytes"}],"stateMutability":"view"},{"type":"function","name":"isApprovedForAll","inputs":[{"name":"owner","type":"address","internalType":"address"},{"name":"operator","type":"address","internalType":"address"}],"outputs":[{"name":"","type":"bool","internalType":"bool"}],"stateMutability":"view"},{"type":"function","name":"maxSupply","inputs":[],"outputs":[{"name":"","type":"uint64","internalType":"uint64"}],"stateMutability":"view"},{"type":"function","name":"mintPriceETH","inputs":[],"outputs":[{"name":"","type":"uint128","internalType":"uint128"}],"stateMutability":"view"},{"type":"function","name":"mintPriceUSD","inputs":[],"outputs":[{"name":"","type":"uint128","internalType":"uint128"}],"stateMutability":"view"},{"type":"function","name":"mintWithETH","inputs":[{"name":"cdCommitmentHash","type":"bytes32","internalType":"bytes32"}],"outputs":[],"stateMutability":"payable"},{"type":"function","name":"mintWithUSDC","inputs":[{"name":"cdCommitmentHash","type":"bytes32","internalType":"bytes32"}],"outputs":[],"stateMutability":"nonpayable"},{"type":"function","name":"mintWithUSDT","inputs":[{"name":"cdCommitmentHash","type":"bytes32","internalType":"bytes32"}],"outputs":[],"stateMutability":"nonpayable"},{"type":"function","name":"name","inputs":[],"outputs":[{"name":"","type":"string","internalType":"string"}],"stateMutability":"view"},{"type":"function","name":"owner","inputs":[],"outputs":[{"name":"","type":"address","internalType":"address"}],"stateMutability":"view"},{"type":"function","name":"ownerOf","inputs":[{"name":"tokenId","type":"uint256","internalType":"uint256"}],"outputs":[{"name":"","type":"address","internalType":"address"}],"stateMutability":"view"},{"type":"function","name":"pause","inputs":[],"outputs":[],"stateMutability":"nonpayable"},{"type":"function","name":"paused","inputs":[],"outputs":[{"name":"","type":"bool","internalType":"bool"}],"stateMutability":"view"},{"type":"function","name":"pendingOwner","inputs":[],"outputs":[{"name":"","type":"address","internalType":"address"}],"stateMutability":"view"},{"type":"function","name":"recoverERC20","inputs":[{"name":"token","type":"address","internalType":"address"}],"outputs":[],"stateMutability":"nonpayable"},{"type":"function","name":"renounceOwnership","inputs":[],"outputs":[],"stateMutability":"nonpayable"},{"type":"function","name":"royaltyInfo","inputs":[{"name":"tokenId","type":"uint256","internalType":"uint256"},{"name":"salePrice","type":"uint256","internalType":"uint256"}],"outputs":[{"name":"receiver","type":"address","internalType":"address"},{"name":"amount","type":"uint256","internalType":"uint256"}],"stateMutability":"view"},{"type":"function","name":"safeTransferFrom","inputs":[{"name":"from","type":"address","internalType":"address"},{"name":"to","type":"address","internalType":"address"},{"name":"tokenId","type":"uint256","internalType":"uint256"}],"outputs":[],"stateMutability":"nonpayable"},{"type":"function","name":"safeTransferFrom","inputs":[{"name":"from","type":"address","internalType":"address"},{"name":"to","type":"address","internalType":"address"},{"name":"tokenId","type":"uint256","internalType":"uint256"},{"name":"data","type":"bytes","internalType":"bytes"}],"outputs":[],"stateMutability":"nonpayable"},{"type":"function","name":"setApprovalForAll","inputs":[{"name":"operator","type":"address","internalType":"address"},{"name":"approved","type":"bool","internalType":"bool"}],"outputs":[],"stateMutability":"nonpayable"},{"type":"function","name":"setBaseURI","inputs":[{"name":"newBaseURI","type":"string","internalType":"string"}],"outputs":[],"stateMutability":"nonpayable"},{"type":"function","name":"setMaxSupply","inputs":[{"name":"newMaxSupply","type":"uint64","internalType":"uint64"}],"outputs":[],"stateMutability":"nonpayable"},{"type":"function","name":"setMintPrices","inputs":[{"name":"ethPrice","type":"uint128","internalType":"uint128"},{"name":"usdPrice","type":"uint128","internalType":"uint128"}],"outputs":[],"stateMutability":"nonpayable"},{"type":"function","name":"setRoyaltyInfo","inputs":[{"name":"receiver","type":"address","internalType":"address"},{"name":"feeNumerator","type":"uint96","internalType":"uint96"}],"outputs":[],"stateMutability":"nonpayable"},{"type":"function","name":"supportsInterface","inputs":[{"name":"interfaceId","type":"bytes4","internalType":"bytes4"}],"outputs":[{"name":"","type":"bool","internalType":"bool"}],"stateMutability":"view"},{"type":"function","name":"symbol","inputs":[],"outputs":[{"name":"","type":"string","internalType":"string"}],"stateMutability":"view"},{"type":"function","name":"tokenURI","inputs":[{"name":"tokenId","type":"uint256","internalType":"uint256"}],"outputs":[{"name":"","type":"string","internalType":"string"}],"stateMutability":"view"},{"type":"function","name":"totalSupply","inputs":[],"outputs":[{"name":"","type":"uint256","internalType":"uint256"}],"stateMutability":"view"},{"type":"function","name":"transferFrom","inputs":[{"name":"from","type":"address","internalType":"address"},{"name":"to","type":"address","internalType":"address"},{"name":"tokenId","type":"uint256","internalType":"uint256"}],"outputs":[],"stateMutability":"nonpayable"},{"type":"function","name":"transferOwnership","inputs":[{"name":"newOwner","type":"address","internalType":"address"}],"outputs":[],"stateMutability":"nonpayable"},{"type":"function","name":"unpause","inputs":[],"outputs":[],"stateMutability":"nonpayable"},{"type":"function","name":"vault","inputs":[],"outputs":[{"name":"","type":"address","internalType":"contract IMasterKeyVault"}],"stateMutability":"view"},{"type":"event","name":"Approval","inputs":[{"name":"owner","type":"address","indexed":true,"internalType":"address"},{"name":"approved","type":"address","indexed":true,"internalType":"address"},{"name":"tokenId","type":"uint256","indexed":true,"internalType":"uint256"}],"anonymous":false},{"type":"event","name":"ApprovalForAll","inputs":[{"name":"owner","type":"address","indexed":true,"internalType":"address"},{"name":"operator","type":"address","indexed":true,"internalType":"address"},{"name":"approved","type":"bool","indexed":false,"internalType":"bool"}],"anonymous":false},{"type":"event","name":"BaseURIUpdated","inputs":[{"name":"newBaseURI","type":"string","indexed":false,"internalType":"string"}],"anonymous":false},{"type":"event","name":"CdKeyClaimed","inputs":[{"name":"tokenId","type":"uint256","indexed":true,"internalType":"uint256"},{"name":"owner","type":"address","indexed":true,"internalType":"address"},{"name":"commitmentHash","type":"bytes32","indexed":false,"internalType":"bytes32"}],"anonymous":false},{"type":"event","name":"MaxSupplyUpdated","inputs":[{"name":"oldSupply","type":"uint64","indexed":false,"internalType":"uint64"},{"name":"newSupply","type":"uint64","indexed":false,"internalType":"uint64"}],"anonymous":false},{"type":"event","name":"MetadataUpdate","inputs":[{"name":"_tokenId","type":"uint256","indexed":false,"internalType":"uint256"}],"anonymous":false},{"type":"event","name":"MintPriceUpdated","inputs":[{"name":"ethPrice","type":"uint128","indexed":false,"internalType":"uint128"},{"name":"usdPrice","type":"uint128","indexed":false,"internalType":"uint128"}],"anonymous":false},{"type":"event","name":"NFTBurned","inputs":[{"name":"tokenId","type":"uint256","indexed":true,"internalType":"uint256"},{"name":"owner","type":"address","indexed":true,"internalType":"address"},{"name":"wasSoulbound","type":"bool","indexed":false,"internalType":"bool"}],"anonymous":false},{"type":"event","name":"NFTMinted","inputs":[{"name":"tokenId","type":"uint256","indexed":true,"internalType":"uint256"},{"name":"minter","type":"address","indexed":true,"internalType":"address"},{"name":"paymentToken","type":"address","indexed":true,"internalType":"address"},{"name":"commitmentHash","type":"bytes32","indexed":false,"internalType":"bytes32"}],"anonymous":false},{"type":"event","name":"OwnershipTransferStarted","inputs":[{"name":"previousOwner","type":"address","indexed":true,"internalType":"address"},{"name":"newOwner","type":"address","indexed":true,"internalType":"address"}],"anonymous":false},{"type":"event","name":"OwnershipTransferred","inputs":[{"name":"previousOwner","type":"address","indexed":true,"internalType":"address"},{"name":"newOwner","type":"address","indexed":true,"internalType":"address"}],"anonymous":false},{"type":"event","name":"Paused","inputs":[{"name":"account","type":"address","indexed":false,"internalType":"address"}],"anonymous":false},{"type":"event","name":"RoyaltyUpdated","inputs":[{"name":"receiver","type":"address","indexed":false,"internalType":"address"},{"name":"feeNumerator","type":"uint96","indexed":false,"internalType":"uint96"}],"anonymous":false},{"type":"event","name":"Transfer","inputs":[{"name":"from","type":"address","indexed":true,"internalType":"address"},{"name":"to","type":"address","indexed":true,"internalType":"address"},{"name":"tokenId","type":"uint256","indexed":true,"internalType":"uint256"}],"anonymous":false},{"type":"event","name":"Unpaused","inputs":[{"name":"account","type":"address","indexed":false,"internalType":"address"}],"anonymous":false},{"type":"error","name":"AlreadyClaimed","inputs":[]},{"type":"error","name":"CannotTransferClaimed","inputs":[]},{"type":"error","name":"ERC2981InvalidDefaultRoyalty","inputs":[{"name":"numerator","type":"uint256","internalType":"uint256"},{"name":"denominator","type":"uint256","internalType":"uint256"}]},{"type":"error","name":"ERC2981InvalidDefaultRoyaltyReceiver","inputs":[{"name":"receiver","type":"address","internalType":"address"}]},{"type":"error","name":"ERC2981InvalidTokenRoyalty","inputs":[{"name":"tokenId","type":"uint256","internalType":"uint256"},{"name":"numerator","type":"uint256","internalType":"uint256"},{"name":"denominator","type":"uint256","internalType":"uint256"}]},{"type":"error","name":"ERC2981InvalidTokenRoyaltyReceiver","inputs":[{"name":"tokenId","type":"uint256","internalType":"uint256"},{"name":"receiver","type":"address","internalType":"address"}]},{"type":"error","name":"ERC721IncorrectOwner","inputs":[{"name":"sender","type":"address","internalType":"address"},{"name":"tokenId","type":"uint256","internalType":"uint256"},{"name":"owner","type":"address","internalType":"address"}]},{"type":"error","name":"ERC721InsufficientApproval","inputs":[{"name":"operator","type":"address","internalType":"address"},{"name":"tokenId","type":"uint256","internalType":"uint256"}]},{"type":"error","name":"ERC721InvalidApprover","inputs":[{"name":"approver","type":"address","internalType":"address"}]},{"type":"error","name":"ERC721InvalidOperator","inputs":[{"name":"operator","type":"address","internalType":"address"}]},{"type":"error","name":"ERC721InvalidOwner","inputs":[{"name":"owner","type":"address","internalType":"address"}]},{"type":"error","name":"ERC721InvalidReceiver","inputs":[{"name":"receiver","type":"address","internalType":"address"}]},{"type":"error","name":"ERC721InvalidSender","inputs":[{"name":"sender","type":"address","internalType":"address"}]},{"type":"error","name":"ERC721NonexistentToken","inputs":[{"name":"tokenId","type":"uint256","internalType":"uint256"}]},{"type":"error","name":"EnforcedPause","inputs":[]},{"type":"error","name":"ExpectedPause","inputs":[]},{"type":"error","name":"InvalidCommitmentHash","inputs":[]},{"type":"error","name":"InvalidETHAmount","inputs":[]},{"type":"error","name":"InvalidSupply","inputs":[]},{"type":"error","name":"MaxSupplyReached","inputs":[]},{"type":"error","name":"NotClaimed","inputs":[]},{"type":"error","name":"NotTokenOwner","inputs":[]},{"type":"error","name":"NotVault","inputs":[]},{"type":"error","name":"OwnableInvalidOwner","inputs":[{"name":"owner","type":"address","internalType":"address"}]},{"type":"error","name":"OwnableUnauthorizedAccount","inputs":[{"name":"account","type":"address","internalType":"address"}]},{"type":"error","name":"ReentrancyGuardReentrantCall","inputs":[]},{"type":"error","name":"SafeERC20FailedOperation","inputs":[{"name":"token","type":"address","internalType":"address"}]},{"type":"error","name":"ZeroAddress","inputs":[]}],"bytecode":{"object":"0x60a0604052662386f26fc10000600a5f6101000a8154816fffffffffffffffffffffffffffffffff02191690836fffffffffffffffffffffffffffffffff1602179055506301312d00600a60106101000a8154816fffffffffffffffffffffffffffffffff02191690836fffffffffffffffffffffffffffffffff1602179055506001600b60086101000a81548167ffffffffffffffff021916908367ffffffffffffffff1602179055503480156100b5575f5ffd5b50604051615ddc380380615ddc83398181016040528101906100d79190610788565b338383815f90816100e89190610a63565b5080600190816100f89190610a63565b5050505f73ffffffffffffffffffffffffffffffffffffffff168173ffffffffffffffffffffffffffffffffffffffff160361016b575f6040517f1e4fbdf70000000000000000000000000000000000000000000000000000000081526004016101629190610b41565b60405180910390fd5b61017a816102cf60201b60201c565b50600161019961018e61030560201b60201c565b61032e60201b60201c565b5f01819055505f73ffffffffffffffffffffffffffffffffffffffff168573ffffffffffffffffffffffffffffffffffffffff1603610204576040517fd92e233d00000000000000000000000000000000000000000000000000000000815260040160405180910390fd5b5f8167ffffffffffffffff1603610247576040517f15ae672700000000000000000000000000000000000000000000000000000000815260040160405180910390fd5b8473ffffffffffffffffffffffffffffffffffffffff1660808173ffffffffffffffffffffffffffffffffffffffff168152505083600c908161028a9190610a63565b5080600b5f6101000a81548167ffffffffffffffff021916908367ffffffffffffffff1602179055506102c5856101f461033760201b60201c565b5050505050610bd7565b60095f6101000a81549073ffffffffffffffffffffffffffffffffffffffff0219169055610302816104d860201b60201c565b50565b5f7f9b779b17422d0df92223018b32b4d1fa46e071723d6817e2486d003becc55f005f1b905090565b5f819050919050565b5f61034661059b60201b60201c565b6bffffffffffffffffffffffff16905080826bffffffffffffffffffffffff1611156103ab5781816040517f6f483d090000000000000000000000000000000000000000000000000000000081526004016103a2929190610bb0565b60405180910390fd5b5f73ffffffffffffffffffffffffffffffffffffffff168373ffffffffffffffffffffffffffffffffffffffff160361041b575f6040517fb6d9900a0000000000000000000000000000000000000000000000000000000081526004016104129190610b41565b60405180910390fd5b60405180604001604052808473ffffffffffffffffffffffffffffffffffffffff168152602001836bffffffffffffffffffffffff1681525060065f820151815f015f6101000a81548173ffffffffffffffffffffffffffffffffffffffff021916908373ffffffffffffffffffffffffffffffffffffffff1602179055506020820151815f0160146101000a8154816bffffffffffffffffffffffff02191690836bffffffffffffffffffffffff160217905550905050505050565b5f60085f9054906101000a900473ffffffffffffffffffffffffffffffffffffffff1690508160085f6101000a81548173ffffffffffffffffffffffffffffffffffffffff021916908373ffffffffffffffffffffffffffffffffffffffff1602179055508173ffffffffffffffffffffffffffffffffffffffff168173ffffffffffffffffffffffffffffffffffffffff167f8be0079c531659141344cd1fd0a4f28419497f9722a3daafe3b4186f6b6457e060405160405180910390a35050565b5f612710905090565b5f604051905090565b5f5ffd5b5f5ffd5b5f73ffffffffffffffffffffffffffffffffffffffff82169050919050565b5f6105de826105b5565b9050919050565b6105ee816105d4565b81146105f8575f5ffd5b50565b5f81519050610609816105e5565b92915050565b5f5ffd5b5f5ffd5b5f601f19601f8301169050919050565b7f4e487b71000000000000000000000000000000000000000000000000000000005f52604160045260245ffd5b61065d82610617565b810181811067ffffffffffffffff8211171561067c5761067b610627565b5b80604052505050565b5f61068e6105a4565b905061069a8282610654565b919050565b5f67ffffffffffffffff8211156106b9576106b8610627565b5b6106c282610617565b9050602081019050919050565b8281835e5f83830152505050565b5f6106ef6106ea8461069f565b610685565b90508281526020810184848401111561070b5761070a610613565b5b6107168482856106cf565b509392505050565b5f82601f8301126107325761073161060f565b5b81516107428482602086016106dd565b91505092915050565b5f67ffffffffffffffff82169050919050565b6107678161074b565b8114610771575f5ffd5b50565b5f815190506107828161075e565b92915050565b5f5f5f5f5f60a086880312156107a1576107a06105ad565b5b5f6107ae888289016105fb565b955050602086015167ffffffffffffffff8111156107cf576107ce6105b1565b5b6107db8882890161071e565b945050604086015167ffffffffffffffff8111156107fc576107fb6105b1565b5b6108088882890161071e565b935050606086015167ffffffffffffffff811115610829576108286105b1565b5b6108358882890161071e565b925050608061084688828901610774565b9150509295509295909350565b5f81519050919050565b7f4e487b71000000000000000000000000000000000000000000000000000000005f52602260045260245ffd5b5f60028204905060018216806108a157607f821691505b6020821081036108b4576108b361085d565b5b50919050565b5f819050815f5260205f209050919050565b5f6020601f8301049050919050565b5f82821b905092915050565b5f600883026109167fffffffffffffffffffffffffffffffffffffffffffffffffffffffffffffffff826108db565b61092086836108db565b95508019841693508086168417925050509392505050565b5f819050919050565b5f819050919050565b5f61096461095f61095a84610938565b610941565b610938565b9050919050565b5f819050919050565b61097d8361094a565b6109916109898261096b565b8484546108e7565b825550505050565b5f5f905090565b6109a8610999565b6109b3818484610974565b505050565b5b818110156109d6576109cb5f826109a0565b6001810190506109b9565b5050565b601f821115610a1b576109ec816108ba565b6109f5846108cc565b81016020851015610a04578190505b610a18610a10856108cc565b8301826109b8565b50505b505050565b5f82821c905092915050565b5f610a3b5f1984600802610a20565b1980831691505092915050565b5f610a538383610a2c565b9150826002028217905092915050565b610a6c82610853565b67ffffffffffffffff811115610a8557610a84610627565b5b610a8f825461088a565b610a9a8282856109da565b5f60209050601f831160018114610acb575f8415610ab9578287015190505b610ac38582610a48565b865550610b2a565b601f198416610ad9866108ba565b5f5b82811015610b0057848901518255600182019150602085019450602081019050610adb565b86831015610b1d5784890151610b19601f891682610a2c565b8355505b6001600288020188555050505b505050505050565b610b3b816105d4565b82525050565b5f602082019050610b545f830184610b32565b92915050565b5f6bffffffffffffffffffffffff82169050919050565b5f610b8b610b86610b8184610b5a565b610941565b610938565b9050919050565b610b9b81610b71565b82525050565b610baa81610938565b82525050565b5f604082019050610bc35f830185610b92565b610bd06020830184610ba1565b9392505050565b6080516151ae610c2e5f395f81816112c30152818161162301528181611ae601528181611b7901528181611bff01528181611e5c01528181612155015281816121e80152818161226e015261243701526151ae5ff3fe608060405260043610610250575f3560e01c80638e18d94b11610138578063bccfd861116100b5578063e163262b11610079578063e163262b14610867578063e30c39781461088f578063e985e9c5146108b9578063f0af8f72146108f5578063f2fde38b1461091d578063fbfa77cf1461094557610250565b8063bccfd86114610775578063beeea404146107b1578063c12e6673146107d9578063c87b56dd14610801578063d5abeb011461083d57610250565b80639d2f434b116100fc5780639d2f434b146106995780639e8c708e146106c1578063a22cb465146106e9578063b88d4fde14610711578063b96065101461073957610250565b80638e18d94b146105b75780638f9a8837146105f357806395d89b411461061d5780639b41886c146106475780639c4f3d0a1461067157610250565b806342966c68116101d157806370a082311161019557806370a08231146104f3578063715018a61461052f57806379ba5097146105455780638456cb591461055b57806389916bcd146105715780638da5cb5b1461058d57610250565b806342966c681461041357806355f804b31461043b5780635c975abb146104635780636352211e1461048d5780636c0360eb146104c957610250565b806318160ddd1161021857806318160ddd1461034657806323b872dd146103705780632a55205a146103985780633f4ba83a146103d557806342842e0e146103eb57610250565b806301ffc9a71461025457806302fa7c471461029057806306fdde03146102b8578063081812fc146102e2578063095ea7b31461031e575b5f5ffd5b34801561025f575f5ffd5b5061027a60048036038101906102759190613d4c565b61096f565b6040516102879190613d91565b60405180910390f35b34801561029b575f5ffd5b506102b660048036038101906102b19190613e45565b6109b0565b005b3480156102c3575f5ffd5b506102cc610ab7565b6040516102d99190613ef3565b60405180910390f35b3480156102ed575f5ffd5b5061030860048036038101906103039190613f46565b610b46565b6040516103159190613f80565b60405180910390f35b348015610329575f5ffd5b50610344600480360381019061033f9190613f99565b610b61565b005b348015610351575f5ffd5b5061035a610b77565b6040516103679190613fe6565b60405180910390f35b34801561037b575f5ffd5b5061039660048036038101906103919190613fff565b610bcb565b005b3480156103a3575f5ffd5b506103be60048036038101906103b9919061404f565b610cca565b6040516103cc92919061408d565b60405180910390f35b3480156103e0575f5ffd5b506103e9610dec565b005b3480156103f6575f5ffd5b50610411600480360381019061040c9190613fff565b610dfe565b005b34801561041e575f5ffd5b5061043960048036038101906104349190613f46565b610e1d565b005b348015610446575f5ffd5b50610461600480360381019061045c91906141e0565b610fc1565b005b34801561046e575f5ffd5b50610477611013565b6040516104849190613d91565b60405180910390f35b348015610498575f5ffd5b506104b360048036038101906104ae9190613f46565b611029565b6040516104c09190613f80565b60405180910390f35b3480156104d4575f5ffd5b506104dd61103a565b6040516104ea9190613ef3565b60405180910390f35b3480156104fe575f5ffd5b5061051960048036038101906105149190614227565b6110ca565b6040516105269190613fe6565b60405180910390f35b34801561053a575f5ffd5b50610543611180565b005b348015610550575f5ffd5b50610559611193565b005b348015610566575f5ffd5b5061056f611221565b005b61058b60048036038101906105869190614285565b611233565b005b348015610598575f5ffd5b506105a161140d565b6040516105ae9190613f80565b60405180910390f35b3480156105c2575f5ffd5b506105dd60048036038101906105d89190613f46565b611435565b6040516105ea9190613fe6565b60405180910390f35b3480156105fe575f5ffd5b5061060761144f565b60405161061491906142da565b60405180910390f35b348015610628575f5ffd5b50610631611470565b60405161063e9190613ef3565b60405180910390f35b348015610652575f5ffd5b5061065b611500565b60405161066891906142da565b60405180910390f35b34801561067c575f5ffd5b5061069760048036038101906106929190614330565b611522565b005b3480156106a4575f5ffd5b506106bf60048036038101906106ba9190613f46565b611621565b005b3480156106cc575f5ffd5b506106e760048036038101906106e29190614227565b6117b8565b005b3480156106f4575f5ffd5b5061070f600480360381019061070a9190614385565b61191d565b005b34801561071c575f5ffd5b5061073760048036038101906107329190614461565b611933565b005b348015610744575f5ffd5b5061075f600480360381019061075a9190613f46565b611958565b60405161076c9190614533565b60405180910390f35b348015610780575f5ffd5b5061079b60048036038101906107969190613f46565b611ab0565b6040516107a89190614562565b60405180910390f35b3480156107bc575f5ffd5b506107d760048036038101906107d29190614285565b611aca565b005b3480156107e4575f5ffd5b506107ff60048036038101906107fa91906145d8565b611d1a565b005b34801561080c575f5ffd5b5061082760048036038101906108229190613f46565b611f76565b6040516108349190613ef3565b60405180910390f35b348015610848575f5ffd5b50610851611fb4565b60405161085e9190614658565b60405180910390f35b348015610872575f5ffd5b5061088d6004803603810190610888919061469b565b611fcd565b005b34801561089a575f5ffd5b506108a3612083565b6040516108b09190613f80565b60405180910390f35b3480156108c4575f5ffd5b506108df60048036038101906108da91906146d9565b6120ab565b6040516108ec9190613d91565b60405180910390f35b348015610900575f5ffd5b5061091b60048036038101906109169190614285565b612139565b005b348015610928575f5ffd5b50610943600480360381019061093e9190614227565b612389565b005b348015610950575f5ffd5b50610959612435565b6040516109669190614772565b60405180910390f35b5f634906490660e01b827bffffffffffffffffffffffffffffffffffffffffffffffffffffffff191614806109a957506109a882612459565b5b9050919050565b6109b86124d2565b5f73ffffffffffffffffffffffffffffffffffffffff168273ffffffffffffffffffffffffffffffffffffffff1603610a1d576040517fd92e233d00000000000000000000000000000000000000000000000000000000815260040160405180910390fd5b6103e8816bffffffffffffffffffffffff161115610a70576040517f08c379a0000000000000000000000000000000000000000000000000000000008152600401610a67906147d5565b60405180910390fd5b610a7a8282612559565b7f8039bd6e4e7dba001c8840eb2e118d9d131246faa7d0d04335f7305127ec0b108282604051610aab929190614802565b60405180910390a15050565b60605f8054610ac590614856565b80601f0160208091040260200160405190810160405280929190818152602001828054610af190614856565b8015610b3c5780601f10610b1357610100808354040283529160200191610b3c565b820191905f5260205f20905b815481529060010190602001808311610b1f57829003601f168201915b5050505050905090565b5f610b50826126f4565b50610b5a8261277a565b9050919050565b610b738282610b6e6127b3565b6127ba565b5050565b5f600b60109054906101000a900467ffffffffffffffff166001600b60089054906101000a900467ffffffffffffffff16610bb291906148b3565b610bbc91906148b3565b67ffffffffffffffff16905090565b5f73ffffffffffffffffffffffffffffffffffffffff168273ffffffffffffffffffffffffffffffffffffffff1603610c3b575f6040517f64a0ae92000000000000000000000000000000000000000000000000000000008152600401610c329190613f80565b60405180910390fd5b5f610c4e8383610c496127b3565b6127cc565b90508373ffffffffffffffffffffffffffffffffffffffff168173ffffffffffffffffffffffffffffffffffffffff1614610cc4578382826040517f64283d7b000000000000000000000000000000000000000000000000000000008152600401610cbb939291906148ee565b60405180910390fd5b50505050565b5f5f5f60075f8681526020019081526020015f2090505f815f015f9054906101000a900473ffffffffffffffffffffffffffffffffffffffff1690505f825f0160149054906101000a90046bffffffffffffffffffffffff1690505f73ffffffffffffffffffffffffffffffffffffffff168273ffffffffffffffffffffffffffffffffffffffff1603610d9e5760065f015f9054906101000a900473ffffffffffffffffffffffffffffffffffffffff16915060065f0160149054906101000a90046bffffffffffffffffffffffff1690505b5f610da76128a6565b6bffffffffffffffffffffffff16826bffffffffffffffffffffffff1688610dcf9190614923565b610dd99190614991565b9050828195509550505050509250929050565b610df46124d2565b610dfc6128af565b565b610e1883838360405180602001604052805f815250611933565b505050565b3373ffffffffffffffffffffffffffffffffffffffff16610e3d82611029565b73ffffffffffffffffffffffffffffffffffffffff1614610e8a576040517f59dc379f00000000000000000000000000000000000000000000000000000000815260040160405180910390fd5b5f600f5f8381526020019081526020015f205403610ed4576040517fb72a252200000000000000000000000000000000000000000000000000000000815260040160405180910390fd5b600b601081819054906101000a900467ffffffffffffffff1680929190610efa906149c1565b91906101000a81548167ffffffffffffffff021916908367ffffffffffffffff16021790555050610f2a81612911565b600d5f8281526020019081526020015f205f9055600e5f8281526020019081526020015f205f610f5a9190613c8e565b600f5f8281526020019081526020015f205f90553373ffffffffffffffffffffffffffffffffffffffff16817f663ba1e2dbc74f4f5580f5d7622fa0c5389e95eab6a668de9a4c9773dbdf94c16001604051610fb69190613d91565b60405180910390a350565b610fc96124d2565b80600c9081610fd89190614b87565b507f6741b2fc379fad678116fe3d4d4b9a1a184ab53ba36b86ad0fa66340b1ab41ad816040516110089190613ef3565b60405180910390a150565b5f600960149054906101000a900460ff16905090565b5f611033826126f4565b9050919050565b6060600c805461104990614856565b80601f016020809104026020016040519081016040528092919081815260200182805461107590614856565b80156110c05780601f10611097576101008083540402835291602001916110c0565b820191905f5260205f20905b8154815290600101906020018083116110a357829003601f168201915b5050505050905090565b5f5f73ffffffffffffffffffffffffffffffffffffffff168273ffffffffffffffffffffffffffffffffffffffff160361113b575f6040517f89c62b640000000000000000000000000000000000000000000000000000000081526004016111329190613f80565b60405180910390fd5b60035f8373ffffffffffffffffffffffffffffffffffffffff1673ffffffffffffffffffffffffffffffffffffffff1681526020019081526020015f20549050919050565b6111886124d2565b6111915f612993565b565b5f61119c6127b3565b90508073ffffffffffffffffffffffffffffffffffffffff166111bd612083565b73ffffffffffffffffffffffffffffffffffffffff161461121557806040517f118cdaa700000000000000000000000000000000000000000000000000000000815260040161120c9190613f80565b60405180910390fd5b61121e81612993565b50565b6112296124d2565b6112316129c3565b565b61123b612a26565b611243612a67565b600a5f9054906101000a90046fffffffffffffffffffffffffffffffff166fffffffffffffffffffffffffffffffff1634146112ab576040517f242b035c00000000000000000000000000000000000000000000000000000000815260040160405180910390fd5b6112b481612a89565b5f6112bf3383612b40565b90507f000000000000000000000000000000000000000000000000000000000000000073ffffffffffffffffffffffffffffffffffffffff166324f2df5f600a5f9054906101000a90046fffffffffffffffffffffffffffffffff166fffffffffffffffffffffffffffffffff1683335f600a5f9054906101000a90046fffffffffffffffffffffffffffffffff166040518663ffffffff1660e01b815260040161136d9493929190614c86565b5f604051808303818588803b158015611384575f5ffd5b505af1158015611396573d5f5f3e3d5ffd5b50505050505f73ffffffffffffffffffffffffffffffffffffffff163373ffffffffffffffffffffffffffffffffffffffff16827f5da09e0acc12f8914ea611d69e4fbff6536dc864e13a6a82a96de74909067554856040516113f99190614562565b60405180910390a45061140a612bc4565b50565b5f60085f9054906101000a900473ffffffffffffffffffffffffffffffffffffffff16905090565b5f600f5f8381526020019081526020015f20549050919050565b600a5f9054906101000a90046fffffffffffffffffffffffffffffffff1681565b60606001805461147f90614856565b80601f01602080910402602001604051908101604052809291908181526020018280546114ab90614856565b80156114f65780601f106114cd576101008083540402835291602001916114f6565b820191905f5260205f20905b8154815290600101906020018083116114d957829003601f168201915b5050505050905090565b600a60109054906101000a90046fffffffffffffffffffffffffffffffff1681565b61152a6124d2565b6001600b60089054906101000a900467ffffffffffffffff1661154d91906148b3565b67ffffffffffffffff168167ffffffffffffffff1610156115a3576040517f08c379a000000000000000000000000000000000000000000000000000000000815260040161159a90614d13565b60405180910390fd5b5f600b5f9054906101000a900467ffffffffffffffff16905081600b5f6101000a81548167ffffffffffffffff021916908367ffffffffffffffff1602179055507f5705dbf7e351f527c34448d97600421b2d61a84480dff031f7bf8ccb484e300a8183604051611615929190614d31565b60405180910390a15050565b7f000000000000000000000000000000000000000000000000000000000000000073ffffffffffffffffffffffffffffffffffffffff163373ffffffffffffffffffffffffffffffffffffffff16146116a6576040517f62df054500000000000000000000000000000000000000000000000000000000815260040160405180910390fd5b5f6116b082611029565b90505f5f600f5f8581526020019081526020015f205414159050600b601081819054906101000a900467ffffffffffffffff16809291906116f0906149c1565b91906101000a81548167ffffffffffffffff021916908367ffffffffffffffff1602179055505061172083612911565b600d5f8481526020019081526020015f205f9055600e5f8481526020019081526020015f205f6117509190613c8e565b600f5f8481526020019081526020015f205f90558173ffffffffffffffffffffffffffffffffffffffff16837f663ba1e2dbc74f4f5580f5d7622fa0c5389e95eab6a668de9a4c9773dbdf94c1836040516117ab9190613d91565b60405180910390a3505050565b6117c06124d2565b5f73ffffffffffffffffffffffffffffffffffffffff168173ffffffffffffffffffffffffffffffffffffffff1603611825576040517fd92e233d00000000000000000000000000000000000000000000000000000000815260040160405180910390fd5b5f8190505f8173ffffffffffffffffffffffffffffffffffffffff166370a08231306040518263ffffffff1660e01b81526004016118639190613f80565b602060405180830381865afa15801561187e573d5f5f3e3d5ffd5b505050506040513d601f19601f820116820180604052508101906118a29190614d6c565b90505f81116118e6576040517f08c379a00000000000000000000000000000000000000000000000000000000081526004016118dd90614de1565b60405180910390fd5b6119186118f161140d565b828473ffffffffffffffffffffffffffffffffffffffff16612bde9092919063ffffffff16565b505050565b61192f6119286127b3565b8383612c31565b5050565b61193e848484610bcb565b6119526119496127b3565b85858585612e0a565b50505050565b60603373ffffffffffffffffffffffffffffffffffffffff1661197a83611029565b73ffffffffffffffffffffffffffffffffffffffff16146119c7576040517f59dc379f00000000000000000000000000000000000000000000000000000000815260040160405180910390fd5b5f600f5f8481526020019081526020015f205403611a11576040517fb72a252200000000000000000000000000000000000000000000000000000000815260040160405180910390fd5b600e5f8381526020019081526020015f208054611a2d90614856565b80601f0160208091040260200160405190810160405280929190818152602001828054611a5990614856565b8015611aa45780601f10611a7b57610100808354040283529160200191611aa4565b820191905f5260205f20905b815481529060010190602001808311611a8757829003601f168201915b50505050509050919050565b5f600d5f8381526020019081526020015f20549050919050565b611ad2612a26565b611ada612a67565b611ae381612a89565b5f7f000000000000000000000000000000000000000000000000000000000000000073ffffffffffffffffffffffffffffffffffffffff16631bf01e9b6040518163ffffffff1660e01b8152600401602060405180830381865afa158015611b4d573d5f5f3e3d5ffd5b505050506040513d601f19601f82011682018060405250810190611b719190614e13565b9050611bf0337f0000000000000000000000000000000000000000000000000000000000000000600a60109054906101000a90046fffffffffffffffffffffffffffffffff166fffffffffffffffffffffffffffffffff168473ffffffffffffffffffffffffffffffffffffffff16612fb6909392919063ffffffff16565b5f611bfb3384612b40565b90507f000000000000000000000000000000000000000000000000000000000000000073ffffffffffffffffffffffffffffffffffffffff166324f2df5f823385600a60109054906101000a90046fffffffffffffffffffffffffffffffff166040518563ffffffff1660e01b8152600401611c7a9493929190614c86565b5f604051808303815f87803b158015611c91575f5ffd5b505af1158015611ca3573d5f5f3e3d5ffd5b505050508173ffffffffffffffffffffffffffffffffffffffff163373ffffffffffffffffffffffffffffffffffffffff16827f5da09e0acc12f8914ea611d69e4fbff6536dc864e13a6a82a96de7490906755486604051611d059190614562565b60405180910390a45050611d17612bc4565b50565b611d22612a67565b3373ffffffffffffffffffffffffffffffffffffffff16611d4285611029565b73ffffffffffffffffffffffffffffffffffffffff1614611d8f576040517f59dc379f00000000000000000000000000000000000000000000000000000000815260040160405180910390fd5b5f600f5f8681526020019081526020015f205414611dd9576040517f646cf55800000000000000000000000000000000000000000000000000000000815260040160405180910390fd5b82600d5f8681526020019081526020015f205414611e23576040517f29dd5dd000000000000000000000000000000000000000000000000000000000815260040160405180910390fd5b8181600e5f8781526020019081526020015f209182611e43929190614ea0565b5042600f5f8681526020019081526020015f20819055507f000000000000000000000000000000000000000000000000000000000000000073ffffffffffffffffffffffffffffffffffffffff1663ac027b2185336040518363ffffffff1660e01b8152600401611eb5929190614f6d565b5f604051808303815f87803b158015611ecc575f5ffd5b505af1158015611ede573d5f5f3e3d5ffd5b505050503373ffffffffffffffffffffffffffffffffffffffff16847fba31317076e34ba1dc7e18f4655136b963dcc05afdc67235530800689f67824385604051611f299190614562565b60405180910390a37ff8e1a15aba9398e019f0b49df1a4fde98ee17ae345cb5f6b5e2c27f5033e8ce784604051611f609190613fe6565b60405180910390a1611f70612bc4565b50505050565b6060611f81826126f4565b50600c611f8d8361300b565b604051602001611f9e92919061504e565b6040516020818303038152906040529050919050565b600b5f9054906101000a900467ffffffffffffffff1681565b611fd56124d2565b81600a5f6101000a8154816fffffffffffffffffffffffffffffffff02191690836fffffffffffffffffffffffffffffffff16021790555080600a60106101000a8154816fffffffffffffffffffffffffffffffff02191690836fffffffffffffffffffffffffffffffff1602179055507f64bb52062b6160142c96e3e3fa97da35c7f319e49d45c3a15916d0d985d909828282604051612077929190615071565b60405180910390a15050565b5f60095f9054906101000a900473ffffffffffffffffffffffffffffffffffffffff16905090565b5f60055f8473ffffffffffffffffffffffffffffffffffffffff1673ffffffffffffffffffffffffffffffffffffffff1681526020019081526020015f205f8373ffffffffffffffffffffffffffffffffffffffff1673ffffffffffffffffffffffffffffffffffffffff1681526020019081526020015f205f9054906101000a900460ff16905092915050565b612141612a26565b612149612a67565b61215281612a89565b5f7f000000000000000000000000000000000000000000000000000000000000000073ffffffffffffffffffffffffffffffffffffffff1663581592f16040518163ffffffff1660e01b8152600401602060405180830381865afa1580156121bc573d5f5f3e3d5ffd5b505050506040513d601f19601f820116820180604052508101906121e09190614e13565b905061225f337f0000000000000000000000000000000000000000000000000000000000000000600a60109054906101000a90046fffffffffffffffffffffffffffffffff166fffffffffffffffffffffffffffffffff168473ffffffffffffffffffffffffffffffffffffffff16612fb6909392919063ffffffff16565b5f61226a3384612b40565b90507f000000000000000000000000000000000000000000000000000000000000000073ffffffffffffffffffffffffffffffffffffffff166324f2df5f823385600a60109054906101000a90046fffffffffffffffffffffffffffffffff166040518563ffffffff1660e01b81526004016122e99493929190614c86565b5f604051808303815f87803b158015612300575f5ffd5b505af1158015612312573d5f5f3e3d5ffd5b505050508173ffffffffffffffffffffffffffffffffffffffff163373ffffffffffffffffffffffffffffffffffffffff16827f5da09e0acc12f8914ea611d69e4fbff6536dc864e13a6a82a96de74909067554866040516123749190614562565b60405180910390a45050612386612bc4565b50565b6123916124d2565b8060095f6101000a81548173ffffffffffffffffffffffffffffffffffffffff021916908373ffffffffffffffffffffffffffffffffffffffff1602179055508073ffffffffffffffffffffffffffffffffffffffff166123f061140d565b73ffffffffffffffffffffffffffffffffffffffff167f38d16b8cac22d99fc7c124b9cd0de2d3fa1faef420bfe791d8c362d765e2270060405160405180910390a350565b7f000000000000000000000000000000000000000000000000000000000000000081565b5f7f2a55205a000000000000000000000000000000000000000000000000000000007bffffffffffffffffffffffffffffffffffffffffffffffffffffffff1916827bffffffffffffffffffffffffffffffffffffffffffffffffffffffff191614806124cb57506124ca826130d5565b5b9050919050565b6124da6127b3565b73ffffffffffffffffffffffffffffffffffffffff166124f861140d565b73ffffffffffffffffffffffffffffffffffffffff16146125575761251b6127b3565b6040517f118cdaa700000000000000000000000000000000000000000000000000000000815260040161254e9190613f80565b60405180910390fd5b565b5f6125626128a6565b6bffffffffffffffffffffffff16905080826bffffffffffffffffffffffff1611156125c75781816040517f6f483d090000000000000000000000000000000000000000000000000000000081526004016125be9291906150c8565b60405180910390fd5b5f73ffffffffffffffffffffffffffffffffffffffff168373ffffffffffffffffffffffffffffffffffffffff1603612637575f6040517fb6d9900a00000000000000000000000000000000000000000000000000000000815260040161262e9190613f80565b60405180910390fd5b60405180604001604052808473ffffffffffffffffffffffffffffffffffffffff168152602001836bffffffffffffffffffffffff1681525060065f820151815f015f6101000a81548173ffffffffffffffffffffffffffffffffffffffff021916908373ffffffffffffffffffffffffffffffffffffffff1602179055506020820151815f0160146101000a8154816bffffffffffffffffffffffff02191690836bffffffffffffffffffffffff160217905550905050505050565b5f5f6126ff836131b6565b90505f73ffffffffffffffffffffffffffffffffffffffff168173ffffffffffffffffffffffffffffffffffffffff160361277157826040517f7e2732890000000000000000000000000000000000000000000000000000000081526004016127689190613fe6565b60405180910390fd5b80915050919050565b5f60045f8381526020019081526020015f205f9054906101000a900473ffffffffffffffffffffffffffffffffffffffff169050919050565b5f33905090565b6127c783838360016131ef565b505050565b5f5f6127d7846131b6565b90505f73ffffffffffffffffffffffffffffffffffffffff168173ffffffffffffffffffffffffffffffffffffffff161415801561284157505f73ffffffffffffffffffffffffffffffffffffffff168573ffffffffffffffffffffffffffffffffffffffff1614155b15612891575f600f5f8681526020019081526020015f205414612890576040517fda637c0100000000000000000000000000000000000000000000000000000000815260040160405180910390fd5b5b61289c8585856133ae565b9150509392505050565b5f612710905090565b6128b76135b9565b5f600960146101000a81548160ff0219169083151502179055507f5db9ee0a495bf2e6ff9c91a7834c1ba4fdd244a5e8aa4e537bd38aeae4b073aa6128fa6127b3565b6040516129079190613f80565b60405180910390a1565b5f61291d5f835f6127cc565b90505f73ffffffffffffffffffffffffffffffffffffffff168173ffffffffffffffffffffffffffffffffffffffff160361298f57816040517f7e2732890000000000000000000000000000000000000000000000000000000081526004016129869190613fe6565b60405180910390fd5b5050565b60095f6101000a81549073ffffffffffffffffffffffffffffffffffffffff02191690556129c0816135f9565b50565b6129cb612a26565b6001600960146101000a81548160ff0219169083151502179055507f62e78cea01bee320cd4e420270b5ea74000d11b0c9f74754ebdbfc544b05a258612a0f6127b3565b604051612a1c9190613f80565b60405180910390a1565b612a2e611013565b15612a65576040517fd93c066500000000000000000000000000000000000000000000000000000000815260040160405180910390fd5b565b612a6f6136bc565b6002612a81612a7c6136fd565b613726565b5f0181905550565b600b5f9054906101000a900467ffffffffffffffff1667ffffffffffffffff16600b60089054906101000a900467ffffffffffffffff1667ffffffffffffffff161115612b02576040517fd05cb60900000000000000000000000000000000000000000000000000000000815260040160405180910390fd5b5f5f1b8103612b3d576040517f29dd5dd000000000000000000000000000000000000000000000000000000000815260040160405180910390fd5b50565b5f5f600b600881819054906101000a900467ffffffffffffffff1680929190612b68906149c1565b91906101000a81548167ffffffffffffffff021916908367ffffffffffffffff16021790555067ffffffffffffffff16905082600d5f8381526020019081526020015f2081905550612bba848261372f565b8091505092915050565b6001612bd6612bd16136fd565b613726565b5f0181905550565b612beb838383600161374c565b612c2c57826040517f5274afe7000000000000000000000000000000000000000000000000000000008152600401612c239190613f80565b60405180910390fd5b505050565b5f73ffffffffffffffffffffffffffffffffffffffff168373ffffffffffffffffffffffffffffffffffffffff1603612ca1575f6040517fa9fbf51f000000000000000000000000000000000000000000000000000000008152600401612c989190613f80565b60405180910390fd5b5f73ffffffffffffffffffffffffffffffffffffffff168273ffffffffffffffffffffffffffffffffffffffff1603612d1157816040517f5b08ba18000000000000000000000000000000000000000000000000000000008152600401612d089190613f80565b60405180910390fd5b8060055f8573ffffffffffffffffffffffffffffffffffffffff1673ffffffffffffffffffffffffffffffffffffffff1681526020019081526020015f205f8473ffffffffffffffffffffffffffffffffffffffff1673ffffffffffffffffffffffffffffffffffffffff1681526020019081526020015f205f6101000a81548160ff0219169083151502179055508173ffffffffffffffffffffffffffffffffffffffff168373ffffffffffffffffffffffffffffffffffffffff167f17307eab39ab6107e8899845ad3d59bd9653f200f220920489ca2b5937696c3183604051612dfd9190613d91565b60405180910390a3505050565b5f8373ffffffffffffffffffffffffffffffffffffffff163b1115612faf578273ffffffffffffffffffffffffffffffffffffffff1663150b7a02868685856040518563ffffffff1660e01b8152600401612e6894939291906150ef565b6020604051808303815f875af1925050508015612ea357506040513d601f19601f82011682018060405250810190612ea0919061514d565b60015b612f24573d805f8114612ed1576040519150601f19603f3d011682016040523d82523d5f602084013e612ed6565b606091505b505f815103612f1c57836040517f64a0ae92000000000000000000000000000000000000000000000000000000008152600401612f139190613f80565b60405180910390fd5b805160208201fd5b63150b7a0260e01b7bffffffffffffffffffffffffffffffffffffffffffffffffffffffff1916817bffffffffffffffffffffffffffffffffffffffffffffffffffffffff191614612fad57836040517f64a0ae92000000000000000000000000000000000000000000000000000000008152600401612fa49190613f80565b60405180910390fd5b505b5050505050565b612fc48484848460016137ae565b61300557836040517f5274afe7000000000000000000000000000000000000000000000000000000008152600401612ffc9190613f80565b60405180910390fd5b50505050565b60605f60016130198461381f565b0190505f8167ffffffffffffffff811115613037576130366140bc565b5b6040519080825280601f01601f1916602001820160405280156130695781602001600182028036833780820191505090505b5090505f82602083010190505b6001156130ca578080600190039150507f3031323334353637383961626364656600000000000000000000000000000000600a86061a8153600a85816130bf576130be614964565b5b0494505f8503613076575b819350505050919050565b5f7f80ac58cd000000000000000000000000000000000000000000000000000000007bffffffffffffffffffffffffffffffffffffffffffffffffffffffff1916827bffffffffffffffffffffffffffffffffffffffffffffffffffffffff1916148061319f57507f5b5e139f000000000000000000000000000000000000000000000000000000007bffffffffffffffffffffffffffffffffffffffffffffffffffffffff1916827bffffffffffffffffffffffffffffffffffffffffffffffffffffffff1916145b806131af57506131ae82613970565b5b9050919050565b5f60025f8381526020019081526020015f205f9054906101000a900473ffffffffffffffffffffffffffffffffffffffff169050919050565b808061322757505f73ffffffffffffffffffffffffffffffffffffffff168273ffffffffffffffffffffffffffffffffffffffff1614155b15613359575f613236846126f4565b90505f73ffffffffffffffffffffffffffffffffffffffff168373ffffffffffffffffffffffffffffffffffffffff16141580156132a057508273ffffffffffffffffffffffffffffffffffffffff168173ffffffffffffffffffffffffffffffffffffffff1614155b80156132b357506132b181846120ab565b155b156132f557826040517fa9fbf51f0000000000000000000000000000000000000000000000000000000081526004016132ec9190613f80565b60405180910390fd5b811561335757838573ffffffffffffffffffffffffffffffffffffffff168273ffffffffffffffffffffffffffffffffffffffff167f8c5be1e5ebec7d5bd14f71427d1e84f3dd0314c0f7b2291e5b200ac8c7c3b92560405160405180910390a45b505b8360045f8581526020019081526020015f205f6101000a81548173ffffffffffffffffffffffffffffffffffffffff021916908373ffffffffffffffffffffffffffffffffffffffff16021790555050505050565b5f5f6133b9846131b6565b90505f73ffffffffffffffffffffffffffffffffffffffff168373ffffffffffffffffffffffffffffffffffffffff16146133fa576133f98184866139d9565b5b5f73ffffffffffffffffffffffffffffffffffffffff168173ffffffffffffffffffffffffffffffffffffffff1614613485576134395f855f5f6131ef565b600160035f8373ffffffffffffffffffffffffffffffffffffffff1673ffffffffffffffffffffffffffffffffffffffff1681526020019081526020015f205f82825403925050819055505b5f73ffffffffffffffffffffffffffffffffffffffff168573ffffffffffffffffffffffffffffffffffffffff161461350457600160035f8773ffffffffffffffffffffffffffffffffffffffff1673ffffffffffffffffffffffffffffffffffffffff1681526020019081526020015f205f82825401925050819055505b8460025f8681526020019081526020015f205f6101000a81548173ffffffffffffffffffffffffffffffffffffffff021916908373ffffffffffffffffffffffffffffffffffffffff160217905550838573ffffffffffffffffffffffffffffffffffffffff168273ffffffffffffffffffffffffffffffffffffffff167fddf252ad1be2c89b69c2b068fc378daa952ba7f163c4a11628f55a4df523b3ef60405160405180910390a4809150509392505050565b6135c1611013565b6135f7576040517f8dfc202b00000000000000000000000000000000000000000000000000000000815260040160405180910390fd5b565b5f60085f9054906101000a900473ffffffffffffffffffffffffffffffffffffffff1690508160085f6101000a81548173ffffffffffffffffffffffffffffffffffffffff021916908373ffffffffffffffffffffffffffffffffffffffff1602179055508173ffffffffffffffffffffffffffffffffffffffff168173ffffffffffffffffffffffffffffffffffffffff167f8be0079c531659141344cd1fd0a4f28419497f9722a3daafe3b4186f6b6457e060405160405180910390a35050565b6136c4613a9c565b156136fb576040517f3ee5aeb500000000000000000000000000000000000000000000000000000000815260040160405180910390fd5b565b5f7f9b779b17422d0df92223018b32b4d1fa46e071723d6817e2486d003becc55f005f1b905090565b5f819050919050565b613748828260405180602001604052805f815250613ab8565b5050565b5f5f63a9059cbb60e01b9050604051815f525f1960601c86166004528460245260205f60445f5f8b5af1925060015f511483166137a0578383151615613794573d5f823e3d81fd5b5f873b113d1516831692505b806040525050949350505050565b5f5f6323b872dd60e01b9050604051815f525f1960601c87166004525f1960601c86166024528460445260205f60645f5f8c5af1925060015f5114831661380c578383151615613800573d5f823e3d81fd5b5f883b113d1516831692505b806040525f606052505095945050505050565b5f5f5f90507a184f03e93ff9f4daa797ed6e38ed64bf6a1f010000000000000000831061387b577a184f03e93ff9f4daa797ed6e38ed64bf6a1f010000000000000000838161387157613870614964565b5b0492506040810190505b6d04ee2d6d415b85acef810000000083106138b8576d04ee2d6d415b85acef810000000083816138ae576138ad614964565b5b0492506020810190505b662386f26fc1000083106138e757662386f26fc1000083816138dd576138dc614964565b5b0492506010810190505b6305f5e1008310613910576305f5e100838161390657613905614964565b5b0492506008810190505b612710831061393557612710838161392b5761392a614964565b5b0492506004810190505b60648310613958576064838161394e5761394d614964565b5b0492506002810190505b600a8310613967576001810190505b80915050919050565b5f7f01ffc9a7000000000000000000000000000000000000000000000000000000007bffffffffffffffffffffffffffffffffffffffffffffffffffffffff1916827bffffffffffffffffffffffffffffffffffffffffffffffffffffffff1916149050919050565b6139e4838383613adb565b613a97575f73ffffffffffffffffffffffffffffffffffffffff168373ffffffffffffffffffffffffffffffffffffffff1603613a5857806040517f7e273289000000000000000000000000000000000000000000000000000000008152600401613a4f9190613fe6565b60405180910390fd5b81816040517f177e802f000000000000000000000000000000000000000000000000000000008152600401613a8e92919061408d565b60405180910390fd5b505050565b5f6002613aaf613aaa6136fd565b613726565b5f015414905090565b613ac28383613b9b565b613ad6613acd6127b3565b5f858585612e0a565b505050565b5f5f73ffffffffffffffffffffffffffffffffffffffff168373ffffffffffffffffffffffffffffffffffffffff1614158015613b9257508273ffffffffffffffffffffffffffffffffffffffff168473ffffffffffffffffffffffffffffffffffffffff161480613b535750613b5284846120ab565b5b80613b9157508273ffffffffffffffffffffffffffffffffffffffff16613b798361277a565b73ffffffffffffffffffffffffffffffffffffffff16145b5b90509392505050565b5f73ffffffffffffffffffffffffffffffffffffffff168273ffffffffffffffffffffffffffffffffffffffff1603613c0b575f6040517f64a0ae92000000000000000000000000000000000000000000000000000000008152600401613c029190613f80565b60405180910390fd5b5f613c1783835f6127cc565b90505f73ffffffffffffffffffffffffffffffffffffffff168173ffffffffffffffffffffffffffffffffffffffff1614613c89575f6040517f73c6ac6e000000000000000000000000000000000000000000000000000000008152600401613c809190613f80565b60405180910390fd5b505050565b508054613c9a90614856565b5f825580601f10613cab5750613cc8565b601f0160209004905f5260205f2090810190613cc79190613ccb565b5b50565b5b80821115613ce2575f815f905550600101613ccc565b5090565b5f604051905090565b5f5ffd5b5f5ffd5b5f7fffffffff0000000000000000000000000000000000000000000000000000000082169050919050565b613d2b81613cf7565b8114613d35575f5ffd5b50565b5f81359050613d4681613d22565b92915050565b5f60208284031215613d6157613d60613cef565b5b5f613d6e84828501613d38565b91505092915050565b5f8115159050919050565b613d8b81613d77565b82525050565b5f602082019050613da45f830184613d82565b92915050565b5f73ffffffffffffffffffffffffffffffffffffffff82169050919050565b5f613dd382613daa565b9050919050565b613de381613dc9565b8114613ded575f5ffd5b50565b5f81359050613dfe81613dda565b92915050565b5f6bffffffffffffffffffffffff82169050919050565b613e2481613e04565b8114613e2e575f5ffd5b50565b5f81359050613e3f81613e1b565b92915050565b5f5f60408385031215613e5b57613e5a613cef565b5b5f613e6885828601613df0565b9250506020613e7985828601613e31565b9150509250929050565b5f81519050919050565b5f82825260208201905092915050565b8281835e5f83830152505050565b5f601f19601f8301169050919050565b5f613ec582613e83565b613ecf8185613e8d565b9350613edf818560208601613e9d565b613ee881613eab565b840191505092915050565b5f6020820190508181035f830152613f0b8184613ebb565b905092915050565b5f819050919050565b613f2581613f13565b8114613f2f575f5ffd5b50565b5f81359050613f4081613f1c565b92915050565b5f60208284031215613f5b57613f5a613cef565b5b5f613f6884828501613f32565b91505092915050565b613f7a81613dc9565b82525050565b5f602082019050613f935f830184613f71565b92915050565b5f5f60408385031215613faf57613fae613cef565b5b5f613fbc85828601613df0565b9250506020613fcd85828601613f32565b9150509250929050565b613fe081613f13565b82525050565b5f602082019050613ff95f830184613fd7565b92915050565b5f5f5f6060848603121561401657614015613cef565b5b5f61402386828701613df0565b935050602061403486828701613df0565b925050604061404586828701613f32565b9150509250925092565b5f5f6040838503121561406557614064613cef565b5b5f61407285828601613f32565b925050602061408385828601613f32565b9150509250929050565b5f6040820190506140a05f830185613f71565b6140ad6020830184613fd7565b9392505050565b5f5ffd5b5f5ffd5b7f4e487b71000000000000000000000000000000000000000000000000000000005f52604160045260245ffd5b6140f282613eab565b810181811067ffffffffffffffff82111715614111576141106140bc565b5b80604052505050565b5f614123613ce6565b905061412f82826140e9565b919050565b5f67ffffffffffffffff82111561414e5761414d6140bc565b5b61415782613eab565b9050602081019050919050565b828183375f83830152505050565b5f61418461417f84614134565b61411a565b9050828152602081018484840111156141a05761419f6140b8565b5b6141ab848285614164565b509392505050565b5f82601f8301126141c7576141c66140b4565b5b81356141d7848260208601614172565b91505092915050565b5f602082840312156141f5576141f4613cef565b5b5f82013567ffffffffffffffff81111561421257614211613cf3565b5b61421e848285016141b3565b91505092915050565b5f6020828403121561423c5761423b613cef565b5b5f61424984828501613df0565b91505092915050565b5f819050919050565b61426481614252565b811461426e575f5ffd5b50565b5f8135905061427f8161425b565b92915050565b5f6020828403121561429a57614299613cef565b5b5f6142a784828501614271565b91505092915050565b5f6fffffffffffffffffffffffffffffffff82169050919050565b6142d4816142b0565b82525050565b5f6020820190506142ed5f8301846142cb565b92915050565b5f67ffffffffffffffff82169050919050565b61430f816142f3565b8114614319575f5ffd5b50565b5f8135905061432a81614306565b92915050565b5f6020828403121561434557614344613cef565b5b5f6143528482850161431c565b91505092915050565b61436481613d77565b811461436e575f5ffd5b50565b5f8135905061437f8161435b565b92915050565b5f5f6040838503121561439b5761439a613cef565b5b5f6143a885828601613df0565b92505060206143b985828601614371565b9150509250929050565b5f67ffffffffffffffff8211156143dd576143dc6140bc565b5b6143e682613eab565b9050602081019050919050565b5f614405614400846143c3565b61411a565b905082815260208101848484011115614421576144206140b8565b5b61442c848285614164565b509392505050565b5f82601f830112614448576144476140b4565b5b81356144588482602086016143f3565b91505092915050565b5f5f5f5f6080858703121561447957614478613cef565b5b5f61448687828801613df0565b945050602061449787828801613df0565b93505060406144a887828801613f32565b925050606085013567ffffffffffffffff8111156144c9576144c8613cf3565b5b6144d587828801614434565b91505092959194509250565b5f81519050919050565b5f82825260208201905092915050565b5f614505826144e1565b61450f81856144eb565b935061451f818560208601613e9d565b61452881613eab565b840191505092915050565b5f6020820190508181035f83015261454b81846144fb565b905092915050565b61455c81614252565b82525050565b5f6020820190506145755f830184614553565b92915050565b5f5ffd5b5f5ffd5b5f5f83601f840112614598576145976140b4565b5b8235905067ffffffffffffffff8111156145b5576145b461457b565b5b6020830191508360018202830111156145d1576145d061457f565b5b9250929050565b5f5f5f5f606085870312156145f0576145ef613cef565b5b5f6145fd87828801613f32565b945050602061460e87828801614271565b935050604085013567ffffffffffffffff81111561462f5761462e613cf3565b5b61463b87828801614583565b925092505092959194509250565b614652816142f3565b82525050565b5f60208201905061466b5f830184614649565b92915050565b61467a816142b0565b8114614684575f5ffd5b50565b5f8135905061469581614671565b92915050565b5f5f604083850312156146b1576146b0613cef565b5b5f6146be85828601614687565b92505060206146cf85828601614687565b9150509250929050565b5f5f604083850312156146ef576146ee613cef565b5b5f6146fc85828601613df0565b925050602061470d85828601613df0565b9150509250929050565b5f819050919050565b5f61473a61473561473084613daa565b614717565b613daa565b9050919050565b5f61474b82614720565b9050919050565b5f61475c82614741565b9050919050565b61476c81614752565b82525050565b5f6020820190506147855f830184614763565b92915050565b7f526f79616c747920746f6f206869676820286d617820313025290000000000005f82015250565b5f6147bf601a83613e8d565b91506147ca8261478b565b602082019050919050565b5f6020820190508181035f8301526147ec816147b3565b9050919050565b6147fc81613e04565b82525050565b5f6040820190506148155f830185613f71565b61482260208301846147f3565b9392505050565b7f4e487b71000000000000000000000000000000000000000000000000000000005f52602260045260245ffd5b5f600282049050600182168061486d57607f821691505b6020821081036148805761487f614829565b5b50919050565b7f4e487b71000000000000000000000000000000000000000000000000000000005f52601160045260245ffd5b5f6148bd826142f3565b91506148c8836142f3565b9250828203905067ffffffffffffffff8111156148e8576148e7614886565b5b92915050565b5f6060820190506149015f830186613f71565b61490e6020830185613fd7565b61491b6040830184613f71565b949350505050565b5f61492d82613f13565b915061493883613f13565b925082820261494681613f13565b9150828204841483151761495d5761495c614886565b5b5092915050565b7f4e487b71000000000000000000000000000000000000000000000000000000005f52601260045260245ffd5b5f61499b82613f13565b91506149a683613f13565b9250826149b6576149b5614964565b5b828204905092915050565b5f6149cb826142f3565b915067ffffffffffffffff82036149e5576149e4614886565b5b600182019050919050565b5f819050815f5260205f209050919050565b5f6020601f8301049050919050565b5f82821b905092915050565b5f60088302614a4c7fffffffffffffffffffffffffffffffffffffffffffffffffffffffffffffffff82614a11565b614a568683614a11565b95508019841693508086168417925050509392505050565b5f614a88614a83614a7e84613f13565b614717565b613f13565b9050919050565b5f819050919050565b614aa183614a6e565b614ab5614aad82614a8f565b848454614a1d565b825550505050565b5f5f905090565b614acc614abd565b614ad7818484614a98565b505050565b5b81811015614afa57614aef5f82614ac4565b600181019050614add565b5050565b601f821115614b3f57614b10816149f0565b614b1984614a02565b81016020851015614b28578190505b614b3c614b3485614a02565b830182614adc565b50505b505050565b5f82821c905092915050565b5f614b5f5f1984600802614b44565b1980831691505092915050565b5f614b778383614b50565b9150826002028217905092915050565b614b9082613e83565b67ffffffffffffffff811115614ba957614ba86140bc565b5b614bb38254614856565b614bbe828285614afe565b5f60209050601f831160018114614bef575f8415614bdd578287015190505b614be78582614b6c565b865550614c4e565b601f198416614bfd866149f0565b5f5b82811015614c2457848901518255600182019150602085019450602081019050614bff565b86831015614c415784890151614c3d601f891682614b50565b8355505b6001600288020188555050505b505050505050565b5f614c70614c6b614c66846142b0565b614717565b613f13565b9050919050565b614c8081614c56565b82525050565b5f608082019050614c995f830187613fd7565b614ca66020830186613f71565b614cb36040830185613f71565b614cc06060830184614c77565b95945050505050565b7f43616e6e6f74207365742062656c6f772063757272656e7420737570706c79005f82015250565b5f614cfd601f83613e8d565b9150614d0882614cc9565b602082019050919050565b5f6020820190508181035f830152614d2a81614cf1565b9050919050565b5f604082019050614d445f830185614649565b614d516020830184614649565b9392505050565b5f81519050614d6681613f1c565b92915050565b5f60208284031215614d8157614d80613cef565b5b5f614d8e84828501614d58565b91505092915050565b7f4e6f7468696e6720746f207265636f76657200000000000000000000000000005f82015250565b5f614dcb601283613e8d565b9150614dd682614d97565b602082019050919050565b5f6020820190508181035f830152614df881614dbf565b9050919050565b5f81519050614e0d81613dda565b92915050565b5f60208284031215614e2857614e27613cef565b5b5f614e3584828501614dff565b91505092915050565b5f82905092915050565b5f819050815f5260205f209050919050565b601f821115614e9b57614e6c81614e48565b614e7584614a02565b81016020851015614e84578190505b614e98614e9085614a02565b830182614adc565b50505b505050565b614eaa8383614e3e565b67ffffffffffffffff811115614ec357614ec26140bc565b5b614ecd8254614856565b614ed8828285614e5a565b5f601f831160018114614f05575f8415614ef3578287013590505b614efd8582614b6c565b865550614f64565b601f198416614f1386614e48565b5f5b82811015614f3a57848901358255600182019150602085019450602081019050614f15565b86831015614f575784890135614f53601f891682614b50565b8355505b6001600288020188555050505b50505050505050565b5f604082019050614f805f830185613fd7565b614f8d6020830184613f71565b9392505050565b5f81905092915050565b5f8154614faa81614856565b614fb48186614f94565b9450600182165f8114614fce5760018114614fe357615015565b60ff1983168652811515820286019350615015565b614fec856149f0565b5f5b8381101561500d57815481890152600182019150602081019050614fee565b838801955050505b50505092915050565b5f61502882613e83565b6150328185614f94565b9350615042818560208601613e9d565b80840191505092915050565b5f6150598285614f9e565b9150615065828461501e565b91508190509392505050565b5f6040820190506150845f8301856142cb565b61509160208301846142cb565b9392505050565b5f6150b26150ad6150a884613e04565b614717565b613f13565b9050919050565b6150c281615098565b82525050565b5f6040820190506150db5f8301856150b9565b6150e86020830184613fd7565b9392505050565b5f6080820190506151025f830187613f71565b61510f6020830186613f71565b61511c6040830185613fd7565b818103606083015261512e81846144fb565b905095945050505050565b5f8151905061514781613d22565b92915050565b5f6020828403121561516257615161613cef565b5b5f61516f84828501615139565b9150509291505056fea2646970667358221220efa5863fc7e27f1adf9d4e902c7f8b2a9e5138d3739da2f01207b13a7fe56b3764736f6c634300081c0033","linkReferences":{}},"methodIdentifiers":{"acceptOwnership()":"79ba5097","approve(address,uint256)":"095ea7b3","balanceOf(address)":"70a08231","baseURI()":"6c0360eb","burn(uint256)":"42966c68","burnByVault(uint256)":"9d2f434b","claimCdKey(uint256,bytes32,bytes)":"c12e6673","getApproved(uint256)":"081812fc","getClaimTimestamp(uint256)":"8e18d94b","getCommitmentHash(uint256)":"bccfd861","getEncryptedCDKey(uint256)":"b9606510","isApprovedForAll(address,address)":"e985e9c5","maxSupply()":"d5abeb01","mintPriceETH()":"8f9a8837","mintPriceUSD()":"9b41886c","mintWithETH(bytes32)":"89916bcd","mintWithUSDC(bytes32)":"beeea404","mintWithUSDT(bytes32)":"f0af8f72","name()":"06fdde03","owner()":"8da5cb5b","ownerOf(uint256)":"6352211e","pause()":"8456cb59","paused()":"5c975abb","pendingOwner()":"e30c3978","recoverERC20(address)":"9e8c708e","renounceOwnership()":"715018a6","royaltyInfo(uint256,uint256)":"2a55205a","safeTransferFrom(address,address,uint256)":"42842e0e","safeTransferFrom(address,address,uint256,bytes)":"b88d4fde","setApprovalForAll(address,bool)":"a22cb465","setBaseURI(string)":"55f804b3","setMaxSupply(uint64)":"9c4f3d0a","setMintPrices(uint128,uint128)":"e163262b","setRoyaltyInfo(address,uint96)":"02fa7c47","supportsInterface(bytes4)":"01ffc9a7","symbol()":"95d89b41","tokenURI(uint256)":"c87b56dd","totalSupply()":"18160ddd","transferFrom(address,address,uint256)":"23b872dd","transferOwnership(address)":"f2fde38b","unpause()":"3f4ba83a","vault()":"fbfa77cf"},"id":1}